:1010000000020020C9230000652300002123000006
:1010100075230000852300009523000000000000D8
:101020000000000000000000000000000523000098
:10103000A523000000000000B9220000B523000035
:1010400067BF0000C9C8000067BF00008527000017
:10105000A127000067BF000067BF000067BF000056
:1010600067BF000099C300009FC3000067BF000076
:1010700067BF000067BF000067BF000067BF0000D8
:1010800067BF0000ADC0000067BF000067BF000081
:1010900067BF000067BF000067BF000067BF0000B8
:1010A00067BF000067BF0000A5C30000ABC300001E
:1010B00067BF000067BF00000000000000000000E4
:1010C00067BF000067BF000067BF0000BD270000CA
:1010D00067BF000067BF000067BF0000E5D00000E9
:1010E00067BF000067BF000067BF0000000000008E
:1010F0000000000067BF000000000000D9270000CA
:1011000010B504460168044810F032FB216803481A
:1011100010F02EFB012010BDC0310100D0310100C4
:101120000368042B70B505460C4608D10B682248AD
:10113000598849BA89B2BDE8704010F019BB032B39
:1011400005D01E4810F0C8FB29681D48F3E70B685E
:101150001C485B781C495A09022A08BF014603F063
:101160001F031A4810F004FBA389FBB120460AF0C4
:101170008DFAA28938B1282805D023685B785B09ED
:10118000043B012B06D863681148BDE87040114646
:1011900010F0EEBA11460F4810F0EAFAA189606823
:1011A0000023BDE8704010220BF0A0BCBDE87040E9
:1011B000094810F091BB00BF243201004432010005
:1011C0005D320100163201001E320100683201005A
:1011D0008A3201007C3301009B32010010B51149B5
:1011E000044610F031FCA8B10F49204610F02CFC49
:1011F00090B10E49204610F027FC78B10C492046EA
:1012000010F022FC60B10B48214610F0B1FA4FF00B
:10121000FF3010BD0120FCE70220FAE70320F8E7C9
:101220000420F6E7AB320100AF320100B432010016
:10123000B8320100BF3201002DE9F0470128ADF5B9
:10124000207D07460D4604D12846FFF759FF044686
:1012500017E04E685249304610F0F6FB0446A8B934
:1012600002F050FA41F2336105464E4810F080FA20
:101270004D4B4E48198810F07BFA4D48294610F026
:1012800077FA20460DF5207DBDE8F0877B1F012B06
:10129000DAD83046FFF7A2FFB0F1000AD4DB2E699E
:1012A000002ED1D033782F2BCED1062F48D1D5F8B0
:1012B0001490484610F0A4FD04463046D5E9028754
:1012C00010F00AFB304610F09BFD5346CDE900605C
:1012D0004FF4007220A90AA801F0DEFE0A9A1378E2
:1012E00023F0300313709CB300220C210AA80AF0EB
:1012F000D7FA01210AA80AF0E2FABDF83430A34275
:10130000054620D30B982246494610F00DF8254497
:101310000A9B2848598849BA2A4689B210F028FA07
:10132000424603A905A80AF0A5FD002816DA2248BE
:1013300010F0D2FA214810F0CFFA4FF0FF34A0E7B6
:101340000024A146B9E71E4810F0C6FA012498E728
:1013500021460AA80AF0B3FA0546D9E7039810B166
:1013600006F0D0F980B2ADF8240004233846049387
:101370000FF0D8FC80B2ADF8260008B91148D7E7C5
:101380000024CDE90044104B04AA294620A801F00E
:10139000C3FE0028CED0044A13880133138070E7BF
:1013A000D3320100D832010018060020FD320100BE
:1013B000153301006033010088330100E33301007D
:1013C0002D330100B7330100211100000368042B05
:1013D00070B505460C4608D10B682248598849BAB1
:1013E00089B2BDE8704010F0C3B9032B05D01E4888
:1013F00010F072FA29681D48F3E70B681C485B7807
:101400001C495A09022A08BF014603F01F031A4863
:1014100010F0AEF9A389FBB120460AF037F9A28992
:1014200038B1282805D023685B785B09043B012B81
:1014300006D863681148BDE87040114610F098B9AD
:1014400011460F4810F094F9A18960680023BDE8A7
:10145000704010220BF04ABBBDE87040094810F004
:101460003BBA00BF24320100443201005D3201006A
:10147000163201001E320100683201008A3201007A
:101480007C3301009B32010030B5324CADF5217D3B
:10149000204610F021FA0A23CDE900434FF40072F0
:1014A000012320A90AA801F0F7FD0A9A137823F076
:1014B000300313700C2100220AA80AF0F1F901216F
:1014C0000AA80AF0FCF9BDF83430002B3CD00B9B85
:1014D00031221A700A9B5988451C49BA2A4689B29A
:1014E0001D4810F045F91D4A03A905A80AF0C2FCE1
:1014F000002804DA1A4810F0EFF91A4825E003989A
:1015000010B106F0FFF880B2ADF8240004231648AD
:1015100004930FF007FC80B2ADF8260008B9134819
:10152000E9E70024CDE90044114B04AA294620A88C
:1015300001F0F2FD0028E0D00E4A13880133138039
:1015400020460DF5217D30BD0B4810F0C5F94FF058
:10155000FF30F6E728340100603301003334010026
:1015600088330100E33301003B340100B73301004D
:10157000CD130000180600202D33010008B50848DF
:1015800010F0AAF90021074810F0F2F8FFF77CFFED
:1015900020B9054810F0A0F9002008BD0348F9E77C
:1015A00040340100513401006B340100EE3301007E
:1015B00070B5064E064CA41BA4080025AC4200D111
:1015C00070BD56F8253098470135F7E7905A01006D
:1015D000B85A010013B500200BF06EFD014608B9A2
:1015E00000F030F8084C20460EF086FE20460EF043
:1015F00083F9064B0648009401224FF480610EF0F7
:1016000087FE02B010BD00BF1C0A00207434010028
:101610001A060020704700004FF080435722C3F89D
:101620001C25BFF34F8F0549054BCA6802F4E062E1
:101630001343CB60BFF34F8F00BFFDE700ED00E029
:101640000400FA0508B57146034810F091F8034903
:10165000032000F02DF800BF96340100843401000F
:1016600008B5FFF7A5FF034810F036F9FFF786FF2E
:10167000002008BD9A3401001FB5EFF3108372B645
:10168000074B029300230193064B009307220C2380
:101690004FF4C061044800F0D3FC00F0F9FD00BF36
:1016A000C334010061160000880B00207047000061
:1016B00008B50D4B1A680C467AB901221A60FFF77B
:1016C000F5FF2146094810F053F80BF0A1FD0A2060
:1016D00010F07CF8064810F0FFF8EFF3108372B6B4
:1016E00000F068FDFFF798FF88110020C834010062
:1016F000E434010070B50D460021044600F0A4FA60
:101700000D4E70B9BFF35B8FE288BFF35B8F3388F8
:1017100012B21BB29A4204D06DB90121204600F0EA
:1017200093FA3388BFF35B8FE380BFF35B8FA388AB
:101730000133A380012070BD901100200021FFF72C
:10174000D9BF000008B50F4BBFF35B8FC188BFF353
:101750005B8F1B8809B21BB2994201D0FFF772FF61
:101760008388002BFAD0013B9BB2838043B9BFF33F
:101770005B8FC380BFF35B8FBDE8084000F09CBA6D
:1017800008BD00BF901100202DE9F74304460E4626
:101790001746EFF31089C84672B60568C5B9DFF879
:1017A0009090051DD4E90331A2689A1A8A4222DC7E
:1017B0001E4A12883280581C6269E0600B4096E82D
:1017C000030002EBC30383E8030088F3108810E0F2
:1017D00055F80C390360D1E900012B6983E8030057
:1017E00028460C2100F0E0FA687989F3108800F0AF
:1017F0001DFB012715E097B1D9F8000001900921E0
:1018000000F0D2FA01980146284600F0FFFB88F369
:10181000108800F0DBFBEFF3108872B6C2E788F3A4
:101820001088384603B0BDE8F08300BF9011002057
:101830009411002070B50B4604461046EFF3108655
:1018400072B6D4E902128A4219D0481CA0602069FD
:101850006269014002EBC10103C983E803006568C6
:101860000DB355F80C39636028460C2100F09CFA42
:10187000687986F3108800F0D9FA012012E078B177
:101880000A4A156809212B61284600F08DFA29467D
:10189000204600F0BBFB86F3108800F097FBECE7D6
:1018A00086F3108870BD86F31088E6E79411002057
:1018B000F8B50446EFF3108672B6344F3A68506AB2
:1018C00000285CD0D2E90630984258D0581C90616C
:1018D000106A034039B9516929B9591C03D186F3FB
:1018E00010881846F8BD002B4DDB516A01EBC3018F
:1018F00003C984E8030055696DB355F80C195161AB
:10190000002B0DDBD2E907349169506A591A8C42D9
:10191000A9BF591C4FF0FF332340D16100EBC30432
:101920002B6993E8030084E803002B79062B04D18C
:1019300086F3108821E0FFF785FE002328462B61FF
:101940000C2100F031FA687986F310880E2814D83B
:1019500000F06CFA11E0002BEADA0421104600F0E6
:1019600023FA86F310880A4B4FF080525A60BFF377
:101970006F8F3B681B79042BDDD00123B1E74FF05B
:10198000FF330029A7D01461B5E700BF94110020F0
:1019900000ED00E00346D0E9072010B59C69141B58
:1019A000A04201DA002010BD541C0240DC61F9D4D1
:1019B000586A00EBC20203C982E803001A896FEA81
:1019C00042426FEA52421A81184600F097FA01200B
:1019D000E9E7000008B50E4B53F82130A3B11A799E
:1019E000042A0BD103C81A6982E8030018460C21A7
:1019F00000F0DAF9074B0120186008BD01461846CF
:101A0000BDE80840FFF7C6BF4FF0FF30F5E700BF65
:101A1000E0110020981100202DE9F0411D46294BCE
:101A200053F82140284B1B880380064690462CB96A
:101A300085F310884FF0FF30BDE8F0812379042B47
:101A400036D0224B014620461F68FFF7A3FF78B12E
:101A500085F310883B79062B02D01D4B1B682BB1F8
:101A60001C4B4FF080525A60BFF36F8F0120E3E7A9
:101A7000B8F1000F02D185F31088DDE73B793E61B4
:101A8000062B0CBF06210521384600F08DF904F124
:101A90001400394600F0BAFA23896FEA43436FEA2B
:101AA00053432381204600F029FA85F31088D7E7B5
:101AB000D0E90001236983E803000C21204600F0EF
:101AC00073F9F2E7E011002090110020941100203A
:101AD0009811002000ED00E010B50146EFF31084EE
:101AE00072B6054B1B880380044B1868FFF752FF42
:101AF00084F3108810BD00BF9011002094110020C5
:101B000021230380FFF766BFEFF3058313F0FF0F78
:101B100001D0FFF7F5BF064B1B881BB2994201D1DC
:101B2000FFF7DABFEFF3108372B60122FFF774BF3D
:101B30009011002010B4EFF3058212F0FF0203D0E1
:101B40005DF8044BFFF7DCBF074B1B881BB29942C3
:101B500003D15DF8044BFFF7BFBFEFF3108372B6FC
:101B60005DF8044BFFF758BF90110020114B1B8804
:101B70001BB29A42F7B506460C46154601D1FFF74F
:101B800061FDEFF31083019372B60B4A17680621CB
:101B9000384600F009F996E80300019B3C610122F8
:101BA00084E803002946204603B0BDE8F040FFF773
:101BB00033BF00BF901100209411002038B5EFF31F
:101BC000108572B60F4BB0F9002053F822400CB9C3
:101BD000FFF738FD2379062B04D085F310884FF0EA
:101BE000FF3038BD03C9236983E8030020460C2178
:101BF00000F0DAF8607985F3108800F017F9012019
:101C0000EFE700BFE01100200021FFF751BE0121E6
:101C1000FFF74EBE034B1B68586A10B1D3E906307C
:101C2000C01A70479411002008B5064B4A1E1B6865
:101C30001140586201D0FFF705FDC3E906111A6291
:101C400008BD00BF94110020F8B504460D46EFF31F
:101C5000108772B603683BB94FF0FF33036087F318
:101C6000108801252846F8BD11B987F31088F9E7D7
:101C70000F4B1E680EB9FFF7E5FC0321304600F05C
:101C800093F8236801330DD106F10C032360002380
:101C9000F36087F31088074B4FF080525A60BFF310
:101CA0006F8FDFE73146204600F0B0F9F1E700BF63
:101CB0009411002000ED00E070B50546EFF31086AA
:101CC00072B6046814B986F3108870BD631C02D123
:101CD00000230360F7E754F80C3903600C21204619
:101CE00000F062F82B6813B94FF0FF332B60607976
:101CF00086F31088BDE8704000F098B808B5037905
:101D00000B2B04BF0C230371836A1A68934208D01B
:101D1000B0F9061003480FF02BFD03490D20FFF723
:101D2000C7FC08BDF13401002035010070B5184C26
:101D3000184D23682E6843BB16B13046FFF7DEFF0F
:101D400000F0E8FA2368002BFAD00020124B0022A2
:101D50001A602368114AB3FA83F352F823301C68DF
:101D60000C3C0B23B44223710DD008B1FFF7C6FF22
:101D70000B4BA16AB4F906201A801F31094A2C6066
:101D8000022000F00BFA204670BD3046DEE700BFAF
:101D90008C1100209411002098110020A011002027
:101DA00090110020080006160A29F0B503791BD906
:101DB0000A2B15D847791B4A52F827603C4600F198
:101DC0000C057EB13368C36052F827301D6042F8BD
:101DD0002450154A4FF000431468FB40234313601E
:101DE0000171F0BDC560F2E70A2BF9D90D4B4579B9
:101DF00053F825203AB11468A2420BBF0022246890
:101E000043F825201460427953F82230002BE7D1A3
:101E1000054C4FF0004323FA02F2236823EA020341
:101E20002360DDE7A01100208C1100200B4B1B6804
:101E30001A790A2A02D95B7983420ED9EFF3058316
:101E400013F0FF0F03D0064B01221A607047054BB9
:101E50004FF080525A60BFF36F8F7047941100208B
:101E60009811002000ED00E008B5EFF3108372B682
:101E7000084B094A1B88094C1BB2002142F8231069
:101E8000074A20681368013B1360FFF78DFF21604C
:101E900000F0FEF990110020E011002094110020C4
:101EA0009C1100200C4B10B51B68EFF3108472B628
:101EB0001A8910420DD1186107211846FFF774FFE7
:101EC00084F31088054B4FF080525A60BFF36F8F38
:101ED00010BD84F31088FBE79411002000ED00E0B2
:101EE00010B50346EFF3108472B6028802EA0100CF
:101EF00022EA0101198084F3108810BD10B503791E
:101F0000048A072B04D0082B0DD00024204610BDD6
:101F100003891C40002CF9D00C21FFF745FF054B2D
:101F200001221A60F2E7038934EA03030CBF01249B
:101F30000024EFE79811002013B5064B01901C68B0
:101F4000FFF7B0FF019904F1080002B0BDE81040AE
:101F5000FFF7C6BF9411002010B5EFF3108472B6DE
:101F6000038902791943072A038A018104D0082AC8
:101F700014D084F3108810E019400029F9D00C2106
:101F8000FFF712FF084B01221A6084F31088074BF9
:101F90004FF080525A60BFF36F8F10BD8B430CBF60
:101FA00001210021E9E700BF9811002000ED00E0C9
:101FB000431E9BB21F2B05D8034B53F8200010B1D2
:101FC000C06A704700207047E0110020EFF31080D6
:101FD00072B60B4B1B681A790A2A07D95A79094B32
:101FE00053F8221011B1096843F8221080F31088C9
:101FF000054B4FF080525A60BFF36F8F704700BFA0
:1020000094110020A011002000ED00E038B50B79FC
:102010000A2B01D9FFF716FB4C7901F10C0203469C
:10202000006818B110F8075CA542F8D9C8601A60BA
:1020300038BD031F53F8042F9A42FBD0181A70477B
:102040000F2A2DE9F84F054689461746984633D89A
:1020500010F003031DBFC3F10402043B5B180B46E1
:10206000A3F1340318BFAD1823F0030318F0080FD1
:1020700005EB030417D12D6003E012600432A24285
:10208000FBD3EFF3108B72B62549012251F8226081
:102090000FFA82FA9EB10132212AF7D18BF3108810
:1020A0006FF08A0A38E02A46E9E702212046FFF766
:1020B0007BFE8BF310882FE06FF0150A2CE041F8BF
:1020C00022402A46DDE90A01A4F806A000F092F8B1
:1020D0000C9B144AE3624FF0FF33C4E908361368DF
:1020E0002060013318F0010FC4E90366C4E90566F6
:1020F000A562C4F8309067712671E6611360D4D18F
:102100000C212046FFF750FE18F0040FD1D18BF3BD
:1021100010883846FFF78AFE5046BDE8F88F00BFAA
:10212000E01100209C11002008B5034B53F820005B
:1021300008B9FFF787FA08BD9C3501000C4B0D4A22
:1021400010B540219A600C4CE02283F82220D97708
:102150000022A0180132302A80F80013F9D11A6940
:1021600042F010021A615A6942F400725A6110BDBD
:1021700000ED00E00010000000E100E0064A5368B6
:1021800043F00503536052F86C3C43F4803342F84B
:102190006C3C0020704700BF90ED00E0044B21F044
:1021A0001F0142F001029860D96000201A61704757
:1021B00090ED00E008B5EFF30581C1F3080119B116
:1021C000024810390FF0D4FA00BE08BDD035010026
:1021D000BFF34F8F0549064BCA6802F4E062134310
:1021E000CB60BFF34F8F00BFFDE700BF00ED00E005
:1021F0000400FA05134423F003034FF0773210B5BF
:1022000043F8042C5A0758BF4FF08832A3F1040456
:102210005CBF43F8082CA3F108044FF0807344E935
:1022200002030D4B44F80C3C0022032344E9053221
:1022300002200123224644E907306FF0020344F8EC
:10224000201C42F8243D0B2342F8043D013B032BA4
:10225000FAD1A4F1440010BD691E00000548064AE9
:10226000064B0168914201D0181A70479842FBD280
:102270000430F6E700000020FEE7FEE70002002041
:10228000EFF308807047000000487047000000200E
:102290000023E1EE103AEFF3148323F0040383F3F9
:1022A0001488EFF3108362B6024B4FF080525A60ED
:1022B000BFF36F8F00ED00E0114910B50C6872B6E6
:1022C000FFF734FD62B6A04208BF10BD2146BDE84D
:1022D000104049B1EFF309821EF0100F08BF22ED44
:1022E000108A22E9F04F0A600068B0E8F04F1EF053
:1022F000100F08BFB0EC108A80F309887047000007
:1023000094110020024B4FF080525A60704700BF7A
:1023100000ED00E030BF62B6BFF36F8F72B670475A
:102320000D4B0E4A0E496846904203D8984201D997
:10233000002102E009468D46012104207246024236
:1023400002D1EFF3088001E0EFF309802DE9F00FEF
:102350006B4600F087F800BF580100200000042001
:102360000002002008B502490520FFF7A1F900BFCF
:10237000DF35010008B502490720FFF799F900BFD2
:10238000EB35010008B502490820FFF791F900BFBD
:10239000FE35010008B502490920FFF789F900BFA1
:1023A0001036010008B502490A20FFF781F900BF85
:1023B0002436010008B502490B20FFF779F900BF68
:1023C00036360100704770471C4AD2F8883043F413
:1023D000700310B5C2F88830FFF7F4FF6A46184B57
:1023E0001848194693421DD3174B184A1848834280
:1023F0001BD3184B184A002093421BD321B1174A14
:1024000017490120FFF7CAFEFFF7B8FEFFF7DBFF11
:1024100000F076F9FFF7FEF80EF032FFBDE810404D
:10242000FFF72AB943F8040BDCE752F8044B43F8F2
:10243000044BDCE743F8040BDEE700BF00ED00E0EF
:1024400000000020FEE7FEE700020020E85A01003D
:102450001406002018060020C04D002008000616B3
:102460001F0000202DE9F04F2DED068B89B090461E
:102470000493594B9A6B08EE102A5A6BD3F828A094
:1024800008EE902ADA6A09EE102A1A6BDB6B0AEE64
:10249000103A524B09EE902A1A68514B9A42044660
:1024A000894602D04F480FF017FAB9F1000F65D0F6
:1024B0004D480FF011FA00252E464C480FF00CFA4B
:1024C00051464B480FF054F919EE101A49480FF0D5
:1024D0004FF919EE901A48480FF04AF91AEE101AFF
:1024E00046480FF045F91AF4004F04D018EE101AC0
:1024F00043480FF03DF91AF0800F04D018EE901AFF
:1025000040480FF035F940480FF0E6F93F484146A2
:102510000FF02EF9B9F1000F2CD118F0080F55D09B
:102520003B4B198809B208460391FFF741FD039917
:10253000024638480FF01CF937480FF0CDF9314604
:1025400036480FF015F96946354BC91A03D5354899
:1025500049420FF00DF9049B1E4620468268C3686D
:1025600001698C4641698E46AD46314691E8F00FCF
:10257000416800682C490620FFF79AF8D4E9023038
:10258000D4E90012E769039020690591D4E905B602
:102590000AEE900AB8052548CDE9062354BF04F198
:1025A000200504F124050FF097F9039B059900938A
:1025B0001F48DDE906230FF0DBF81AEE901A0097AA
:1025C00033465A461B480FF0D3F876E7217F1A4866
:1025D00010390FF0CDF8AFE700ED00E0000000206B
:1025E000FEE7FEE7443601005A3601001F370100BE
:1025F00028370100383701004837010058370100FB
:102600006837010078370100883701008D370100F5
:10261000901100209F370100DE3701000F380100C4
:102620005801002037380100643801008936010064
:10263000A4360100E1360100B83701007047000000
:10264000EFF3108172B6094B1A680132012A1A6041
:1026500009D14FF080430020C3F800011A60D3F87D
:102660000021002AFBD081F31088704764120020FB
:10267000094A08B513680BB9FEF7E4FFEFF31081C0
:1026800072B61368013B13601BB94FF080430122FF
:102690005A6081F3108808BD641200204FF0804317
:1026A000D3F8182412F4803209D10121C3F8181587
:1026B000C3F804219960D3F80421002AFBD07047A5
:1026C0000C4B1B78062B12D10B4B186810F00F0027
:1026D0000DD104331B6803F0F003302B08D1074BF6
:1026E0001B6813F0F00F0CBF012000207047002082
:1026F000704700BFE00F00F0E40F00F0EC0F00F0B7
:1027000008B5FFF7DDFF20B1134AD36823F08073CB
:10271000D360FFF7D5FF10B1104B03221A60FFF70B
:10272000CFFF30B14FF080430022C3F80C21C3F833
:102730001021FFF783FF0A4B0122C3F84025FFF762
:10274000FDFC084A136943F0100313610DF0B2F861
:10275000BDE808400AF01ABAF0ED00E0A00500401C
:1027600000E0014000ED00E0044B1B682BB1044B7E
:102770004FF080525A60BFF36F8F7047981100205E
:1027800000ED00E008B5044A044B10681B68984748
:10279000BDE80840FFF7E8BF78120020681200206B
:1027A00008B5044A044B50685B689847BDE8084088
:1027B000FFF7DABF781200206812002008B5044A3B
:1027C000044B90689B689847BDE80840FFF7CCBF72
:1027D000781200206812002008B5044A044BD06823
:1027E000DB689847BDE80840FFF7BEBF78120020BD
:1027F0006812002008F077BDD0E9023018470000C9
:1028000070B50E4615460021102204460EF08EFECD
:10281000024BE560C4E9013670BD00BFF927000036
:10282000036802463BB11868834219BF02681A6008
:102830000023136070471846704708B500B109B906
:10284000FEF700FFEFF3108272B60B6833B903682E
:102850006BB11B680B60036819600160406882F30C
:10286000108830B1BDE808400121FFF775BB096051
:10287000F3E708BD08B5EFF3108172B6FFF7D0FF9C
:1028800081F3108808B10023036008BDF8B50D4638
:10289000044600B109B9FEF7D5FEEFF3108772B612
:1028A000002621464B68002BF5D00846FFF7B8FFFD
:1028B000083110B90136B542F4D187F3108818B940
:1028C0000120FFF739FBE8E700230360F8BDD0E9FA
:1028D0000501FFF7B2BF000001600349C0E905230D
:1028E000C0E90310704700BFCF2800000A46011D51
:1028F00000680DF04BBF0146006810B104310DF0C7
:102900002BBF704738B58569044685B10A4B1868F6
:10291000436901330CD00DF0E2FE23696A68C11AE5
:102920008A4226BF9B181B1A00236B60206138BDAA
:1029300083685B689847F0E7CC5801008369084AD0
:1029400010B5044610682BB15A6821460DF01EFFE1
:10295000206110BD2146BDE810400DF0FDBE00BF56
:10296000CC5801008369002210B504465A60A06962
:1029700030B1436823B90368A36163699847F6E7F8
:102980002046BDE81040FFF7D9BF000070B50546EE
:102990000C46EFF3108672B6FFF7B4FF05F118038B
:1029A0001A68EAB922601A681AB151686068091A8F
:1029B00051601C60AB69A34206D10D4B6268186878
:1029C00029460DF0E3FE286186F31088094B1B6849
:1029D0002BB1094B4FF080525A60BFF36F8F70BD1F
:1029E000616850688142DDD3091A61601346D7E7F8
:1029F000CC5801009811002000ED00E070B50446AD
:102A00000D46EFF3108672B6FFF77CFFA26904F162
:102A100018012AB92046FFF791FF86F3108870BD90
:102A20009542136802D011461A46F2E70B60002B5C
:102A3000F0D05A6869680A445A60EBE7034B416179
:102A4000C0E9023000238361704700BF65290000A0
:102A500058B1037843B1013810F8013F0BB9012098
:102A60007047303B092BF7D90020704738B1054B30
:102A70000A0901F00F019A5C5B5C0270437002204E
:102A8000704700BF77380100F8B50D46570006467D
:102A900010B18C18A54201D13846F8BD304615F862
:102AA000011BFFF7E3FF0644F4E703461A46013330
:102AB00011780029FAD1101A7047F8B504460E466D
:102AC00015468F18B74201D16800F8BD204617F8A7
:102AD000011DFFF7CBFF0444F4E707B50422019181
:102AE0000DEB0201FFF7E9FF03B05DF804FB000006
:102AF0000E4B994230B517D80A2301221C468B424F
:102B00000FD960B183180A25B1FBF5F405FB141049
:102B1000303003F8010D084609282146F4D8104644
:102B200030BD63430132EAE70A22EAE7FFC99A3B74
:102B3000FFF7DEBF70B5084E05460C4604B970BD00
:102B4000336822469B68012128460EF08BFB002843
:102B5000F5DB241A0544F1E7AC05002007B5014672
:102B600001A8FFF783FF022101A8FFF7E3FF03B0ED
:102B70005DF804FB07B501466846FFF7AEFF082184
:102B80006846FFF7D7FF03B05DF804FB10B50446B5
:102B9000FFF78BFF01462046BDE81040FFF7CABF94
:102BA00090B1D9B1002340EA0102D2070ED5C20785
:102BB00010D5CA0710D581423EBF024608461146CD
:102BC000091AF6D100FA03F108467047400849088F
:102BD0000133E8E74008EAE74908EAE70146F3E796
:102BE0002DE9F04707460D4614460AB9FEF72AFDBF
:102BF00011462846FFF7D4FFA042F7D8A84241D893
:102C0000B4FBF0F2B5FBF0F04FF00048B0FA80FEF4
:102C10000021CEF1200C28FA0EF80E4600240025E3
:102C20000023CEF15F0E14EB040A45EB050910EA10
:102C3000080F54464D461EBF4AF0010A4D46544601
:102C40009D4208BF94424FEA46064FEA580811D306
:102C5000A41A65EB030546F00106002E0EDA54EACD
:102C6000050300D00136CCF1200C3E6087F804C08B
:102C7000BDE8F087002EF0D10CF1FF3C0131714529
:102C8000D1D3ECE74FF0000C6646ECE70C4A10B5E8
:102C9000D2F80C41002303601CB1D2F81041A142CC
:102CA00007D0D2F8283153B1D2F82C31994206D14D
:102CB00001231C2101FB032303F58673036010BD70
:102CC000000200202DE9F04192B014462F2300931A
:102CD00005460E46402302AA0B21204608F0D9FCE7
:102CE000002821DD23685B7803F01F03013B0124EA
:102CF0009C40A4B200274FF002086B68BB4203D887
:102D0000404612B0BDE8F081286800EB0710306043
:102D100002A908F098FB28B933689B881C42F0D1BF
:102D20004FF001080137E8E70220EAE72DE9F0411A
:102D3000104CD4F8DC50002306460F460360A04632
:102D400035B104F1DC000CF0EFFA4FF0FF3560B95B
:102D5000D8F8F4305BB1084839460CF0E5FA08B110
:102D6000054C34602846BDE8F081DC34F9E70125E4
:102D7000F8E700BF00020020F40200202DE9F34133
:102D80000023284F0360054601A814460193FFF76E
:102D9000CDFFD7F80C61DDF80480A6B1B04523D192
:102DA0002CB32168D7F81C210B7803F00F039A424B
:102DB0001AD1CAB1043107F58A700EF085FA4FF0C6
:102DC000FF36034638B3D7F828314BB3434507D114
:102DD00084B901241C2303FB047404F586742C605D
:102DE000304602B0BDE8F0814FF0FF36EBE74FF020
:102DF000FF36EFE72168D7F838210B7803F00F038F
:102E00009A42EDD1002AEBD0074804310EF05CFA6B
:102E10000028E5D11C2303F586733B442B60DFE7D4
:102E20000126DDE700020020300300202DE9F84FE5
:102E30009A4600250B68056093F80080214C0646F1
:102E40000F46914608F00F08A368A3B3E368013367
:102E500018BF216904F1080B08BF04F11001BAF191
:102E6000000F0ED03B685A884B889A4223D14946BE
:102E700004F11C000CF058FAE8B1C6F800B0BDE847
:102E8000F88F0B7803F00F03984514D13868424649
:102E9000043104300EF018FA68B9494604F11C00F8
:102EA0000CF042FA0028E8D1E369042B08D194F829
:102EB0002030FF2BE1D06834002DE0D10125C3E79D
:102EC000FEF7C0FB000200201FB514461A46037827
:102ED000012B0AD10023CDE901314068069B039400
:102EE00001A907F094F804B010BD4FF0FF30FAE7E5
:102EF00010B50368013B012B96B0044616D8042395
:102F00000360C36A4BB14268013214BF826800F1AA
:102F1000080200926946002298476368013318BF8F
:102F2000A2684FF0000318BF1370236016B010BDE5
:102F300043685A1C012A13B5044605D8204602B03E
:102F4000BDE81040FFF7D4BF013B436040F6B83105
:102F5000C3F104034FF4FA60994098400AF0FAF97B
:102F6000014604F13400FFF7C1FC2368022B0BD0AB
:102F700000230093D4E9021204F1140304F1600069
:102F8000FFF7A2FF0028D9DD02B010BD10B586B052
:102F90001022002101A80EF0C9FA04230093104B5F
:102FA000059300230F481A46694606F045FF00289E
:102FB00010DB0D4B0D4C1A680A480023C4E900329F
:102FC00021460B4A0CF096F901212046FFF75EFCE2
:102FD000034610B9002006B010BD5B689847F3E7C0
:102FE00000003316EC18002094110020E418002093
:102FF000913300007FB51B4EB6F900407CBB1A4BE5
:103000001A481B4DCDE901431A4B009306220823B1
:103010004FF48B61FFF714F830802846D022214608
:1030200040F8084B0EF082FA3022214605F1DC0010
:103030000EF07CFA3822214605F586700EF076FAFD
:103040004FF40072214605F5A2700EF06FFA0AF0F7
:103050005DF9C5F8D800B6F9000004B070BD6FF096
:103060001000FAE7E0180020FE3301008814002069
:10307000000200208D2F0000064BBFF35B8F53E84A
:10308000000F421C43E800210029F8D1BFF35B8FF9
:1030900080B27047D80200202DE9FF47DDE90C69B6
:1030A00005460F4690461C4626B133782F2B01D09B
:1030B000FEF7C8FA2F60FFF7DFFF824634B30AF04D
:1030C00025F9CDE9004AADF80C00022303AA01213D
:1030D000286808F01BFB424604460346394628464A
:1030E00008F032FB002C0CDD5EB1B9F1000F08D006
:1030F0002F23009332464B460B21284608F0A0FBB5
:10310000044604EAE47004B0BDE8F087CDE900406D
:10311000234622462146DBE72DE9F04F87B090F8A1
:10312000008002911C460023CDE904338146C8F398
:10313000011892460AB9FEF785FA9DF84430012B32
:1031400000F2CD8001238DF81030684B0593039376
:103150001CB9B8F1000F40F0BA80654D0121284636
:10316000FEF772FDAB682F4633B12B6F8BB3284649
:10317000FEF7A2FD0025B4E09B46682505FB0BF594
:103180007A190221916054631099916305F11C042E
:1031900052463C440AF1180C10685168264603C692
:1031A000083262453446F7D104AB682693E8030041
:1031B0000BFB06623A4482E8030006FB0BF6B8F10B
:1031C000000F09D0B8F1010F6FD03E440024B46065
:1031D00020E04FF0010BD0E73E4497F84421C6F8B9
:1031E0001080002A5BD1434830614FF40072494699
:1031F0000EF09AF83269029B7361002A4FD00422C4
:10320000F26040F6B8314FF4FA600AF0A3F80122F8
:103210000446B2603648FEF74FFD682202FB0B738E
:103220009B68002BA6D008352F4401238DF8103061
:10323000039B0593B7B107F13405002C49D007F182
:10324000500318462C4903933A46FFF7D9FA2B4905
:10325000039B09682A4A2846FFF73EFB2146284679
:10326000FFF744FB00230093029A5346494604A803
:10327000FFF72AFE051E34DC67B1B8F1000F02D15A
:10328000BB6883F800801CB107F13400FFF733FB03
:1032900000233B6015F1800F7FF46CAF21E06822C2
:1032A00002FB0B7200249460B4E73E444FF0FF32FF
:1032B000F260D9F80000D9F8041005F110023A4480
:1032C00003C2D9F80800106041F28834A2E727460B
:1032D000ABE71C22214628460EF028F9C2E76FF022
:1032E0001505284607B0BDE8F08F00BFEC18002098
:1032F0000002002044030020312F0000CC580100C0
:10330000E418002038B505680446287810F0300F1E
:1033100002BF20F0300040F0200028702068437089
:1033200023681B7803F00F0304331944D21A636D2A
:1033300061600020E081A2816BB90A4B1868436983
:1033400001330AD00DF0CBF9C0F3571262650621A4
:10335000204608F0A5FA002038BD83685B689847CE
:10336000F2E700BFD058010010B50B464FF40072D1
:1033700006490446FFF7C6FF014620B92046BDE8CE
:10338000104008F09CBA4FF0FF3010BD88120020AA
:103390002DE9F043C906B9B0804660D5002514ACCC
:1033A0001C22294620460495DFF86C920EF0BEF8E8
:1033B00001238DF868302F460EAB00930194002353
:1033C00004AA03A9404606F0A3FD061E47DB0FD062
:1033D0007319B3F5007F88BFC5F5007609EB0500CA
:1033E0000399324688BF012735440DF09DFFE3E77E
:1033F0000FCC0DF16C0CACE80F0094E8030008232F
:103400008CE803004FF0010983498DF884302A4687
:1034100022A88DF82490CDF82880059608F09BF816
:1034200000281BAC1BDB229B1A78C2F30112032A73
:103430000DD105A84B460EAA22A9FFF7F7FC059867
:1034400028B13430FFF757FA0598FFF751FD22995C
:103450004A785309022B08D004D8002B38D039B051
:10346000BDE8F083043B012BF9D8002305A80EAA80
:1034700022A9FFF7DBFC229B05981B78002800F0AF
:10348000398113F0300FC3F3011200F03181032AA8
:10349000E5D04FF0FF35836C13B13430FFF72BFAD2
:1034A0000598002F14BF062303230360C36A13B1DA
:1034B0000EAA22A99847059B5A68002AA2BF9B68BA
:1034C00000221A70059B00221A606B1C08D1C6E707
:1034D0000B781B11002A30D113F0030513D10325FB
:1034E000229A137823F0300343EA05131370229BCA
:1034F00000225A70229A137823F00F03137000945D
:103500000EAB0422EFE0022DA9D101230EAA22A9BD
:1035100005A8FFF78BFC059C002CA0D06368013345
:103520009DD0E36A2560002B99D104F13400FFF7A8
:10353000E2F92046FFF7DCFC91E79A078FD437B118
:103540008D2122A8FFF710FF002888D0C8E0CDE920
:1035500006770897314F7E6802258EB1736922AADB
:103560000BA930469847022801D13669F5E70128B2
:1035700002D136690546F0E7002846D10B9E054684
:10358000012D45D0022D45D0002D3CD1314608A853
:10359000FFF77CFB379B002B40F0818022AA0EA90D
:1035A00007A8FFF7EBFB089B8046002B44D0079A47
:1035B000002A35D0934203D007954FF0FF3337935D
:1035C000079B8BB1229F5E603A78DDE9090102F02A
:1035D0000F0203F114051A6185E8030022B1391DB9
:1035E00003F108000DF0A0FE0EAB0C939DF8243003
:1035F0000D93B56808490B960BAB4FF4007222A8E7
:10360000A8470028A0DAA0219BE700260320B6E700
:10361000852196E7842194E788120020000200208B
:103620009DF824101A7D914209D119680EA80BF05B
:103630007BFE08B1089B0793079B002BC0D1379BEB
:103640000133BDD0B8F1000FB7DB089B002BB4D11C
:103650000EA906A8FFF76AFB069B7BB900280DDBC5
:1036600018250DF1380C05FB0075BCE80F00DC35A2
:1036700006950FC59CE8030085E80300069A52B141
:103680001C2000FB08F808F58673B8443B440793F8
:10369000C8F80C2194E7079B002B91D18DE7012BF3
:1036A0001AD122AA0EA907A8FFF768FB079B7BB1D6
:1036B0001D602A460EA907A80795FFF75FFB079B29
:1036C00033B90EA906A8FFF731FB069B03B11D60B5
:1036D0004FF0FF33379387E7013385D04FF0FF304A
:1036E00000940EAB0246064909A8FFF7EDFBB6E6CB
:1036F0000225D0E613F0300F3FF4F1AEAFE600BF85
:1037000088120020044B98681B6F003818BF0120F6
:1037100003B10130704700BF000200202DE9F043E3
:10372000282A85B006460F4601D0FDF78BFF184BBF
:1037300001925C6800250123ADF80C30A8461CB945
:10374000284605B0BDE8F083E3682BB1CDF80880CA
:10375000029B6268934201D32469F0E72068D4F8A1
:103760000C9000EB031001AB7EB17A1B7119C847B6
:103770000028F1DDBDF80C3023F00103ADF80C306A
:10378000029B013305440293E2E732463146EEE7FD
:1037900000020020F7B504461E464523FFF7B2FDA0
:1037A00028220C21204608F07BF80121204608F051
:1037B00086F8A189676801910546304608F095F8BA
:1037C0000199C3B228223846FFF7A8FF284403B066
:1037D000F0BD2DE9F041DDF81880154600220E46B7
:1037E0001F46014608F10803104600F0CCF80446D5
:1037F00050B1406876BA6DBA8680C58027B142461E
:10380000394608300DF090FD2046BDE8F0810000FB
:1038100073B506460C46002A3ED0072B3CD991884A
:10382000D088083B40BA49BA009389B202F1080334
:1038300082B28120FFF7CDFF054668B3237EFF2BC0
:1038400004F1080214BF04F11801002100F009FC82
:10385000044610B90146284609E000231A461946D5
:10386000184603F0B9FD054630B90146204602B0BE
:10387000BDE8704004F0EEB843680EB1B6F9666179
:103880005E8006492C602B4640F20222022002F0A4
:1038900039FD01460028DED002B070BD0000FFFFF8
:1038A000F8B5048906460F46154600200DB1AE4214
:1038B00018D132897168002307F0A5F904F13A03A1
:1038C0000344B3F5803F24BF013080B239682044FF
:1038D0003A3000232022083180B207F094F9C04327
:1038E00080B2F8BD23462A89696807F08CF9AB6875
:1038F0002D681C44A4B2D9E72DE9F0410D4680465D
:103900000321284604F0E4FA044608B9FDF79AFEBC
:10391000022104F0DDFA06460028F7D0A368032B45
:1039200005D828460021BDE8F04104F093B8011DF8
:103930002A4620466768FFF7B3FF0028F1D13B789D
:10394000892B0ED8842B10D8802B15D039782B4694
:1039500040F20122032002F0D5FC0028E1D0BDE8AE
:10396000F0816333DBB2012BF0D8A36871683A466B
:10397000404601F0F7FDE9E7238971683A46404681
:10398000FFF746FFE2E738B50D46144600211A4618
:10399000032304F09BF928B1436800221D705C707A
:1039A0009A70DA7038BD10B5044668B190F91030DD
:1039B000032B0CD102680431FFF772FF50B162682B
:1039C00043BA5380002010BD6FF00D00FBE76FF08D
:1039D0004C00F8E76FF00100F5E7002104F03AB879
:1039E00008B5044910220DF06FFCB0FA80F04009D0
:1039F00008BD00BF3C3C01002DE9F8430E46D1E96B
:103A0000001405460A4600232ABB5BBAA380A379AB
:103A1000FF2B02D119BB3B23A371E37913B94DBB33
:103A20004023E37104F108073E49102238460DF0A7
:103A30004BFC04F11809804678BB4846FFF7D0FFDD
:103A40000246D0B11022414638460DF06FFD0123E9
:103A5000E37534464FE0906812680344D4E70B7C6A
:103A6000023BDBB2022BD6D82F4AD35CA371FF2BCB
:103A7000D3D1D0E795F86431D3E74946284603F01F
:103A800000F90028E5D0034600F1100253F8041BAA
:103A900047F8041B9342F9D1DBE7284602F0D8FE31
:103AA0004846FFF79DFF98B10024284602F0D7FE54
:103AB000002CCED00321304604F00AFA28B1436826
:103AC0001B7803F0FD03852BC3D06FF07C0022E050
:103AD0003946284603F0AEF80028E5DB2844047D8B
:103AE00004F01F04103C18BF0124DEE704F00CF9B9
:103AF00098B12060044694F91030022B02D120685E
:103B00000028F3D13146204603F093FF002807DA5E
:103B1000831C08BF0020BDE8F8836FF00B00FAE7B4
:103B20000020F8E75C3C0100B138010010B50C46FC
:103B3000FFF762FF002804DA2046FFF74EFF00205F
:103B400010BD0120FCE7000038B50B680C460546A7
:103B500008B9FDF777FD6268B0F96611518000225F
:103B60004BB9B5F8A030934209D220467A21BDE87E
:103B7000384003F06FBF99681B680A44F0E7284695
:103B800002F03EFE60B10B49234640F202220120C2
:103B900002F0B8FB68B92046BDE83840FFF71DBF0A
:103BA000B5F9660140F20222214602F0A0FB00288E
:103BB000F1DD38BD0000FFFF002370B504460D465F
:103BC00042F0400619461A46184603F005FC014625
:103BD00020B92046BDE87040FFF7FFBE43681E7164
:103BE00004602846BDE87040FFF7AEBF80B5A0B0C6
:103BF0001022002105A80DF099FCB44BB44F1B888E
:103C0000ADF82030082110A80697FEF70DF805A999
:103C1000022003F07DFE40F20523ADF80E3040F2A5
:103C2000022840F2012401A8FDF7F1FFBDF80610BB
:103C3000B1F5017F29D8414500F2C081A1425BD096
:103C40004145F0D1029E96F91030013340F01981C0
:103C50007468002C52D0B4F9020002F0EEFD054663
:103C6000304694F8049004F04FF809F03F090146FB
:103C700000285ED003F040FF064696F91030022B74
:103C800000F00381162130466DE0A1F59F43403BD3
:103C90009AB2152AC7D8152BC5D801A252F823F01D
:103CA000CD3F0000CD3F0000CD3F0000CD3F0000E4
:103CB000273C0000CD3F0000CD3F0000CD3F00007D
:103CC000CD3F0000CD3F0000273C0000CD3F00006D
:103CD000CD3F0000CD3F0000CD3F0000CD3F0000B4
:103CE000273C0000CD3F0000CD3F0000273C0000F6
:103CF000D53F0000DD3F0000029E0EB9FDF7A2FC9B
:103D00004FF0FF31304604F0E3F8054638B1436820
:103D1000002BF3D0B3F9020002F08FFD0546736863
:103D20003BB1B268272A04D91B7803F0F003602B5B
:103D300001D030460DE0304603F0E6FF044600288F
:103D4000F7D00222282104F001F80023237418B9C7
:103D50002046FFF742FE64E7D0F8049099F8073058
:103D600023B97421204603F075FE5AE7B9F8041010
:103D700099F8066049BA89B209B93B2EE8D1844264
:103D8000A36864D08B42204661D904F04DF809F154
:103D9000180A5046FFF724FED0B94E490822504673
:103DA0000DF092FA48B199F81830FF2B07D199F825
:103DB000193003F00F03022B01D1002D56D15046CC
:103DC00003F04CF80546B0FA80F35B09002BBFD135
:103DD000292E4FD03A2E4FD0112E0CBF0423002392
:103DE00023743146022003F00CFE002801DC3A2E39
:103DF00044D10121204603F0EBFE4FF0010994F974
:103E00001000234640F20122394602F07BFA10B935
:103E10002046FFF7E2FDB9F1000F10D03A2E03D192
:103E20000121204603F0D4FE234640F20122314610
:103E3000022002F067FA10B92046FFF7CEFD3A2EB5
:103E40007FF4EFAE21462846FFF756FDE9E6002253
:103E500083681A4490F91030022B02D000680028C1
:103E6000F6D1283A8A4292D216217BE7504602F0D8
:103E7000F5FFA8E70223B3E70323B1E74FF00009FA
:103E8000BDE74FF000094D46F7E670681249102271
:103E900018300DF019FA00283FF4F4AE304603F064
:103EA00033FF044600283FF444AF4668337EFF2BBF
:103EB00034D1002D40F0978002F0B2FC00283FF48E
:103EC00047AF411E204603F083FE0CE09011002016
:103ED0000000FFFF2C3C01005C3C01004A462946E3
:103EE0003046FFF769FE284602F098FC0546002898
:103EF0003FF497AE204603F007FF064600283FF444
:103F000027AF01462846FFF777FD0028E6DAB442DE
:103F10003FF41EAF3046FFF760FD19E71836304614
:103F200002F09CFF82463046FFF75AFD10B9BAF105
:103F3000000F17D021465046FFF7F8FD00283FF448
:103F400007AF204603F0B4FD00287FF401AF2346FD
:103F500040F201223946022002F0D4F900287FF411
:103F600060AEF5E609AB22462946304601F012FA6A
:103F70000028FFF656AEBDF83C00C0F3041002F076
:103F80005CFC054600283FF4B9AE2146FFF7CEFDA4
:103F900000283FF446AE51469DF83E300DAA5046EB
:103FA00003F01AFA014600283FF4D2AE436883F8C2
:103FB000049004602846FFF7C7FD32E66FF08503E2
:103FC00003A901A80493FDF7F9FD2AE6029801F080
:103FD0008BFD26E6029801F06FF922E60298002197
:103FE00001F08EF91DE601462846FFF79FFD0028E7
:103FF0003FF417AE4A4629462046FFF7DDFD10E69E
:104000001FB50A4CB4F9003063B9094A0948CDE933
:104010000132094B0093042208234FF48061FEF71C
:104020000FF82080B4F9000004B010BDB41D0020CA
:10403000AC380100B4190020ED3B000008B50221A6
:1040400003F046FF60B143680BB9FDF7FBFA8268E5
:10405000272AFAD91A7802F0F002602AF5D1184618
:1040600008BDF8B50C46174602232822002103F0AC
:104070002DFE064600B3456805F10800F4B121465F
:10408000034604F1100251F8040B43F8040B91426B
:10409000F9D105F11800B7B13A46034607F110010E
:1040A00052F8040B43F8040B8A42F9D160232B60C9
:1040B000FF23AB710023EB713046F8BD102221467F
:1040C0000DF034FAE5E7102239460DF02FFA0123FE
:1040D00085F82730EAE70000F8B5044615460E4695
:1040E00009B90020F8BDD1F8A470FA04F9D519492E
:1040F00008220DF0E9F838B12378FF2BF1D163786D
:1041000003F00F03022BECD1FB0704F1080105F1CA
:10411000100201D4FDF796FA96F8650106F0ECFF5F
:1041200010F0FF00DDD0A8762B4604F1100254F801
:10413000041B43F8041B9442F9D1B6F966311B0104
:1041400003F4F87343F4806343F006032B830120E8
:10415000C8E700BF2C3C01002DE9F341054602F001
:104160007DFE044602F074FBB4F96611002000F0F5
:10417000A5FC0646002847D0002C47D00368B4F9B8
:1041800066119A8EC2F30412914201D0FDF75AFAD9
:1041900004332A462146184600F006F929462046EF
:1041A00002F048FD051E31DB002E38D061190B7D71
:1041B00003F01F02102A2FD003F00702013A012A50
:1041C0002DD80133D4F898600B75691C0901174B81
:1041D0001748B3F900808F1D683121440191FEF723
:1041E0000DFC04EB05100023C0E91E36274444F6FD
:1041F000CF73A0F88230C0F88470A0F88080019955
:104200000B48FEF7C3FB01E0002CC7D1204602B0EB
:10421000BDE8F04102F023BB4EF66026D5E700234F
:1042200084F89C30204601F019FCEFE7B41D002013
:10423000501F00202DE9F0430D4685B01E46044670
:1042400008B9FDF7FFF9D0F8A430D90403D404204D
:1042500005B0BDE8F08371780229F8D11278882A78
:10426000F5D1DB07F3D590F8C02002AB00F1B8011F
:1042700002F0ABF80828EAD1DDE90223F168B06862
:104280008B4208BF8242E2D1B378012B45D0022B8A
:1042900049D0002B3FD105F118012046F78802F0E4
:1042A000C9FC051ED3DB7FBABBB2012B04EB0502B0
:1042B0001CBF4EF660275F43137D2A4823F01F037F
:1042C00005F1010143F010034FEA0111137501F1EB
:1042D0000608254B01F16801214418BFA7F56A477C
:1042E000B3F90090019114BF603F47F23057A044EA
:1042F000FEF784FB04EB05140023C4E91E3744F6E3
:10430000CF7301991748A4F88230C4F88480A4F8C8
:104310008090FEF73BFBB0789AE705F11801204644
:1043200002F068FEF7E7B4F9661105F1080000F045
:10433000C5FB0746002884D000F090FB002000F069
:10434000A7FB28B984F89C00204601F087FBE2E730
:104350003B68002B3FF475AF05F11800FFF7FCFE3A
:10436000D9E700BF501F0020B41D002013B58A7884
:104370004878402A8CBF03230223984211D1CC886D
:10438000C87864BAC0F30013A4B20093083123467E
:1043900000F00F0003F022FE4EF66020604302B0F2
:1043A00010BD4FF0FF30FAE7F0B5074685B015466F
:1043B0001E460C4609B9FDF745F9B1F96611002012
:1043C00000F07CFB3DB3D4F8A430DA0423D50068B8
:1043D000B4F96621838EC3F304139A421BD131468C
:1043E000043006F0EEFCB0B1D4F8A430DB0710D5F1
:1043F00094F8C02002AB04F1B801204601F0E5FFBB
:10440000082806D1002302AA0F21184605F08BFBCD
:1044100010B905B0F0BD0020009033462A46214671
:10442000384601F015FEF4E72DE9F0410E46174637
:104430009846054608B9FDF705F90836B0F9661142
:10444000304600F0D3F9044628B190F8363013F026
:10445000010F08BF0024D5F8A430DA07EBD595F892
:104460006501414606F05EFE00281ADB74B9B5F915
:1044700066110322304600F00BFA044688B13B78FF
:10448000872B03D1838E23F00803838694F836307C
:10449000DB0706D53B78862B05D1A38E43F00803B6
:1044A000A386BDE8F081872BFBD0A38E23F0080301
:1044B000F6E7000008B5044910220CF005FFB0FA39
:1044C00080F0400908BD00BF5C3C0100F7B517460D
:1044D000BDF820401E4600283AD0002938D0FFF70A
:1044E000E9FF002E36D058B3002F33D0012500F05D
:1044F00041F93DB33146384600F082FA054620B313
:10450000164B1860BCB1164B011D1648B3F900706C
:104510000191FEF773FA4FF47A706043002644F677
:10452000CD73A86001990F486E60EB812D61AF815A
:10453000FEF72CFA344600F023F9204603B0F0BD14
:104540000546D4E76FF08504F5E76FF00B04F2E75A
:10455000002EC9D16FF01504EFE700BFAC1F00209B
:10456000B41D0020501F002038B504460D4600F051
:1045700001F924B11DB12046FFF79CFF20B100F0E6
:10458000BDFA08B100F06AFABDE8384000F0F8B8AA
:104590002DE9F04106460F469846154602B10BB983
:1045A000FDF750F8106838B92C68204600F0A6FBDB
:1045B0000446F0B9286003E000F0B4FB0028F3D112
:1045C0002C68204600F064FA044668B12068002890
:1045D000F7D027B1838EC3F304139F42F1D12EBBD2
:1045E0004146204600F0B2FA201E2C6018BF012080
:1045F00013E094F82430002BD2D020680028D4D0C7
:1046000027B1838EC3F304139F42CED13EB9204617
:10461000414600F095FB2C600120BDE8F081314659
:10462000043006F0CEFB0028BFD0F0E7314604305E
:1046300006F0C7FB0028C4D0D2E7000010B590F800
:1046400020308CB0044613B1FFF734FF00B394F868
:104650002110154A154B1648002914BF114619465A
:104660000DF086F804F1100108460191FFF722FFD2
:10467000019938B9282202A806F012FC01460D481B
:104680000DF076F8618C0C480DF072F80CB010BD8E
:104690002146282202A806F003FC94F820200146B7
:1046A00006480DF065F8DDE7B4380100393B01003C
:1046B000B6380100C8380100D0380100C138010007
:1046C00030F9081FFDF71CBA38B5054668B10C1D56
:1046D0001022074920460CF0F7FD30B1214628464C
:1046E00006F06FFB00F0010038BD0120FAE700BFC3
:1046F0005C3C010008B590F8361021B938220CF066
:1047000015FF012008BD0020FCE770B504461046E7
:104710000E461546FFF7EEFF4CB120462B1D04F167
:10472000100250F8041B43F8041B9042F9D11F2ECD
:1047300001D9FCF787FFAB8E23F4F87343EA061127
:10474000A98670BD064A13683BB11868834219BF39
:1047500002681A600023136070471846704700BF54
:104760004C1F002001490248FEF768B9C14600000D
:10477000501F00200148FCF7E1BF00BF6C1F002064
:104780000148FCF7DFBF00BF6C1F002070B50C4C68
:10479000A38EC3F30413994206460D4604D094F841
:1047A000363033B1002070BD2146FFF78DFF002861
:1047B000F5D03046024A2946FFF7A7FF0048F2E746
:1047C000741F002028B13830064B984203D30020D4
:1047D00070470548F8E790F83620002AF8D13830BD
:1047E000F3E700BFAC1F0020741F002008B518B904
:1047F000FCF728FF0B4813E00A4B93F8362072B100
:104800009B8E13F4F87FC3F3041202D009B19142D6
:1048100005D10146044806F0D4FA0028EAD1002068
:1048200008BD00BF741F0020781F002070470000E3
:1048300010B590F8363023F0010300F1240180F820
:10484000363004461048FEF7D9F8104A116821B1F5
:104850000B689C4206D1FFF775FF2046BDE810406B
:10486000FFF748BF0B461B681868844202D0994284
:10487000F9D1F2E7002BF0D02168196011688C4261
:1048800008BF1360E9E700BF501F00204C1F002045
:104890002DE9F84F8846074608B9FCF7D3FE02F029
:1048A00007052B1F022BF8D9FFF770FF04460028DD
:1048B0004CD1FFF747FF0646002862D0DFF8C8A0BA
:1048C0008346D1469BF8364034F001042DD1BBF825
:1048D000343003F4C06383B95846FFF7A9FF5A4642
:1048E00041463846FFF711FFBBF834302B43ABF895
:1048F000343001238BF836305C46DAF80030B3B13F
:104900001B68CBF80030DAF80030C3F800B0C9F803
:1049100000B0C4B9FFF716FF86428346D2D1D9F85A
:1049200000303BB9CBF800B00BE00024E5E7CBF852
:1049300000B0ECE71B68CBF80030D9F80030C3F8C2
:1049400000B0C9F800B02046BDE8F88F90F83630C6
:10495000DA0708D4828E22F007022A4343F00103CB
:10496000828680F836302368002BECD1064B1A681B
:104970002AB1126822601A6814601C60E3E72460A0
:10498000FBE70446DFE700BF4C1F002070B50C4674
:10499000054600B109B9FCF755FE0A46031D00F1B2
:1049A000140153F8040B42F8040B8B42F9D1A88E82
:1049B0002083C0F3041001F040FF1049064608228E
:1049C00020460CF081FC38B12378FF2BE3D16378CB
:1049D00003F00F03022BDED1002EDCD0D6F8A4307A
:1049E000DB0705F10C0104F11002D4D596F865013E
:1049F00006F082FB0028A8BFA07670BD2C3C010009
:104A0000F8B5154C256807460E469DB1AB8EC3F32D
:104A10000413994201D00020F8BD291D06F0D1F9F8
:104A20000028F8D095F8363043F0080385F8363082
:104A30002046F1E7FFF7AAFE024620600028EAD0F0
:104A400031463846FFF761FE226892F8363043F06F
:104A5000080382F83630EBE7B81D002010B5044695
:104A6000006860B190F8363023F0080380F83630E3
:104A7000FFF740FE1422002120460CF057FD034BA7
:104A80001A68A24204BF00221A6010BDAC1F0020A9
:104A900028B11430074A904203D3002070470648DB
:104AA000F8E703681BB193F83630002BF6D11430C9
:104AB000F1E700BFCC1D0020B81D002010B520B1CB
:104AC0000D4B1C682CB900200FE00029F8D1FCF731
:104AD000B9FD21B1A38EC3F304139942F3D128B9D0
:104AE00094F836301B07F2D5034810BD211D06F09F
:104AF00068F90028E7D0F3E7B81D002010B5124C84
:104B00002168B1B10B689B8E03F00703013B012BB9
:104B10000DD80020FFF7BCFF68B90846FFF7B8FFC3
:104B200001B110B90020FFF7B3FF2060014608462D
:104B300010BD0846EEE703689B8E03F00703013BB8
:104B4000012BF2D8E6E700BFAC1F002038B50C46B9
:104B5000054610B1036803B109B9FCF773FD1022D3
:104B6000002120460CF0E2FC114A12680023AA4200
:104B700084F8203008D12B689B8E03F00703013B9B
:104B8000012B94BF0023012384F821302B6804F10A
:104B900010011A1D143352F8040B41F8040B9A4209
:104BA000F9D12B689B8EC3F30413638438BD00BF17
:104BB000AC1F00202DE9F84F05468A461F46914656
:104BC00042B13B49102248460CF07EFB10B17B1EDF
:104BD0007F2B01D9FCF736FD0024364EA34696F80C
:104BE0002520D6F8008097422DD1B8F1000F5BD078
:104BF000B8F83420C2F30412924529D14146284620
:104C0000FFF762FD20B34946301D06F0EFF88742FA
:104C10001ED84DB108F1040805F1100255F8041B27
:104C200048F8041B9542F9D1302202FB0BF3214ACC
:104C3000D25892F8363043F0400382F8363034468A
:104C40002046BDE8F88F1CB9B8F1000F08BF344604
:104C50000BF1010BBBF1080F06F13006BFD1002CA0
:104C6000EED051462846FFF791FD0646206028B950
:104C70000146302220460CF059FCE0E7024651463E
:104C80002846FFF742FD2046FFB250F8042B92F869
:104C9000363043F0400382F8363049463A4606F053
:104CA000C9F884F82570CBE7002C08BF3446CFE75D
:104CB0005C3C0100CC1D002010B504460068C8B162
:104CC0000D4B08229C4202D0196888420BD0013A51
:104CD00003F13003F6D190F8363023F0400380F82A
:104CE0003630FFF707FD20463022BDE81040002196
:104CF0000CF01CBC10BD00BFCC1D002028B1303012
:104D0000064B984203D3002070470548F8E790F817
:104D10002420002AF8D13030F3E700BF4C1F0020D8
:104D2000CC1D0020054B984206D303F5C073984272
:104D30002CBF00200120704700207047CC1D0020B0
:104D400038B5034610B1026802B109B9FCF77AFC24
:104D5000021D03F11404084652F8045B40F8045B9A
:104D6000A242F9D193F8252081F82020002481F86F
:104D700021401A68908EC0F30410488493F82430C0
:104D8000042B01F1100005D121461022BDE8384066
:104D90000CF0CCBB131D0146143253F8040B41F840
:104DA000040B9342F9D138BD2DE9F8431646074666
:104DB00000B10AB9FCF746FC184D0024A04605F5E1
:104DC000C07995F824305BB13946281D06F00EF8FD
:104DD000404505D995F8253083429CBF80462C4636
:104DE00030354D45EDD134B194F82430042B0FD13A
:104DF000E38CDB070CD4FFF781FE18B944B96FF0E0
:104E0000710003E03146FFF7A1FE0020BDE8F88302
:104E100031462046FFF794FFF7E700BFCC1D002086
:104E200090F8242022F0040280F82420FFF744BFE9
:104E30002DE9F341044600F114011748FDF7DEFDAA
:104E40002368988EC0F3041001F0F7FC0546E0B12A
:104E500000F11606211D304694F82580019105F0D9
:104E6000C5FF05F126078045019998BF94F8258074
:104E7000384688BF002605F0B9FF804501D926B124
:104E800037463946284602F0B5F8204602B0BDE85C
:104E9000F041FFF7C5BF00BF501F00202DE9F341CF
:104EA0001F4613460A4601460020089EFFF782FE71
:104EB000054600283ED090F82430B74243F0040362
:104EC00080F8243001D2FCF7BDFB07EA0604601C21
:104ED00038D01E4B1868436901332FD00BF0FFFB0D
:104EE000711C04461DD01A4B1A48B3F9008005F115
:104EF00014010191FDF782FD0023C5E9053644F652
:104F0000CC7301991348EB832D62A5F81C80FDF743
:104F10003DFDB21C05D03319013301D104B1013676
:104F20002644FB1C10D83B19013308BF01373C4411
:104F3000C5E90A46284602B0BDE8F08183685B688F
:104F40009847CDE72646F3E73C46F1E7CC58010009
:104F5000B41D0020501F002010B50A4B9B6902466B
:104F6000002013B94FF0FF3010BD5C6820445C890D
:104F70008C4204D1002AF7D0DC689442F4D01B683C
:104F8000EFE700BF501F002038B50D46044608B9B2
:104F9000FCF758FB082BFBD84B1E1F2BF8D8FFF74C
:104FA000E9FB294600222046FFF772FC054620B99E
:104FB000FFF7E6FB6FF00B0038BD0E4908222046D4
:104FC0000CF082F938B12378FF2B10D1637803F00D
:104FD0000F03022B0BD1AB8E23F4C06323F0070326
:104FE00043F4C063AB86FFF7CBFB0020E4E76FF030
:104FF0001500E1E72C3C010070B505460E46FFF7B1
:10500000B9FB00242046FFF7DDFB044668B1A38E00
:10501000C3F304139E42F5D1211D284605F0D1FEAD
:105020000028EFD02046FFF703FCBDE87040FFF7F3
:10503000A7BB38B50546FFF79DFB00242046FFF7C8
:10504000C1FB044678B194F83630DA07F6D5211D55
:10505000284605F0B6FE0028F0D0A38E5B0702D0EC
:105060002046FFF7E3FBBDE83840FFF789BBF8B502
:105070000C6806460D461746FFF77CFB2046FFF7F7
:10508000A1FB044640B194F83630DB07F6D55EB993
:1050900039462046FFF77AFC2C60FFF771FB286841
:1050A000003818BF0120F8BDA38EC3F304139E423D
:1050B000E4D1EDE710B58AB00146044628226846DF
:1050C00005F0EEFE014610480CF052FB238B13F462
:1050D000F87FC3F3041102D00C480CF049FBA17E09
:1050E0006A4604F1100006F036F8014608480CF054
:1050F0003FFB238B1B0702D506480CF039FB064803
:105100000CF0EAFB0AB010BDBD4C0100D93801001B
:10511000E2380100ED380100393B010010B50A49C1
:10512000082204460CF0D0F848B12378FF2B08D1B0
:10513000607800F00F00831E5842584110BD0120D6
:10514000FCE70020FAE700BF2C3C010008B5FFF7A0
:105150004DFB28B190F8363013F0010F08BF002046
:1051600008BDF0B5036885B00446ABB193F83620AE
:10517000120711D59E8E04330FCB6D4685E80F00C4
:105180002046FFF76BFC0024C6F304162746204692
:10519000FFF7B4FD044608B905B0F0BD206800284B
:1051A000F5D0838EC3F304139E42F0D12946043018
:1051B00005F007FE0028EAD0226884F8247092F8EF
:1051C000363023F0400382F836302046FFF774FD76
:1051D000DDE700002DE9F0411F460B4B1446054664
:1051E0000E460A48B3F900801146FDF707FC00237C
:1051F000C4E900376681E560A4F8088021460348C9
:10520000BDE8F041FDF7C2BBB41D0020501F0020D7
:105210002DE9F041069F044690460D46B1B191F844
:1052200065210A2A12D11A4600F1100154F8040B24
:1052300042F8040B8C42F9D1B5F8662112011A83A9
:1052400000229A7601263046BDE8F08127B1194642
:105250003846FFF79BFBF5E71A4629462046FEF73E
:105260003BFF06460028EED15DB1B5F9661102227A
:105270002046FFF70DFB014628B9404602F0EAFB45
:10528000E1E73946F3E7B8F1000FDCD07621F4E727
:1052900038B5084DFFF76EFAA96929B10C682846A0
:1052A000FDF7ACFB2146F8E7FFF75CFABDE83840B4
:1052B000FFF766BA501F002038B5044608B9FCF75E
:1052C000C1F9002501F0C4FA402220460B49A4F898
:1052D0009C5000F0B5FD4FF47A71284608F03AF87A
:1052E00004F16802034644F6C3712046FFF772FFDB
:1052F0002046BDE8384001F0B2BA00BF2C3C0100A6
:1053000013B5044608B9FCF79DF901F0A1FA10485D
:1053100004F16801FDF772FB04F1160108460191E2
:10532000FFF7FCFE019910B1204601F063FE04F185
:10533000260108460191FFF7F1FE019910B12046C0
:1053400001F058FE204602B0BDE8104001F087BAD7
:10535000501F002010B5044608B9FCF773F901F09E
:1053600077FA4FF47A73C4F8983094F89E3043F08B
:10537000010384F89E30204601F046F82046044997
:1053800001F083FD2046BDE8104001F068BA00BF7F
:105390000C3C01002DE9F0470C468CB00546084650
:1053A0001746994601F054FAFFF7E4F994B3B4F9BB
:1053B00066112846FFF7CAFE0646002800F0C8809E
:1053C000B0F83480C8F304182846FFF7A7FE002879
:1053D00061D1B8F1000F5ED0204601F040FA40469E
:1053E00001F02BFA0446FFF7CBF9204601F030FA22
:1053F000FFF7C0F9002C3AD1002F4FD13C466FF097
:105400007506FFF7BDF9204601F029FA30460CB0C9
:10541000BDE8F0872146CCE708F10401284605F0F5
:10542000E5FC98F82530984207D3BAF1000F1AD05E
:105430009AF825209A4238BFC2464046FFF75EFCE4
:1054400080460028E8D1BAF1000F2FD09AF8243016
:105450005A072BD5BAF82630DB0727D5DAF8003003
:10546000B3F83480AEE7C246E7E7B046ACE7B4F93C
:1054700066112846FFF76AFE064600964B463A46F6
:1054800021462846FFF7C4FE002818BF002608BFA3
:105490006FF07506B5E7002CEFD1ADE77621384601
:1054A00002F0D8FA6FF075060024AAE703AA39467D
:1054B0002846FFF779FC061E30DB2949102207A891
:1054C0000BF002FF78B94EBB2846FFF727FE28B342
:1054D00007AA05F1100C28686968134603C308354C
:1054E00065451A46F7D10CBBBDF92E0001F0A5F9B0
:1054F0000446FFF745F9204601F0AAF9FFF73AF90B
:105500001CBB214607A8FFF721FE4B4600903A46F8
:10551000214607A8FFF77CFE0028B8E71FB17221DB
:10552000384602F097FA6FF071066AE7B4F966211F
:10553000BDF82E309A4208D0204601F090F9B4F917
:105540006621BDF82E309A42CED1B4F96611D9E762
:105550002846FFF7E3FD002887D1B246B0466CE746
:105560005C3C01002DE9F04F8A4687B015461E4687
:10557000044608B9FCF766F801F06AF9FFF7FAF893
:105580002B78872B00F05081882B00F0F881862B38
:1055900040F0A8810AF108084046FFF7BFFD002847
:1055A00000F0A0819AF80730FF2B40F09B816B78C8
:1055B000002B40F097810F2E40F29481D4F8A43054
:1055C000D90407D4EB885BBA9BB242F228329342EB
:1055D00000F28881A6F1100B05F110073B46D94671
:1055E000B9F1000F55D1EE88B4F96611B3B2404657
:1055F000002B5AD0FFF704FA8046002800F0728191
:1056000076BA4FF47A73B6B25E433346021D44F65F
:10561000CD71FFF7DFFD2B790BB184F86431EB68B6
:1056200013B11BBAC4F89830B8F1000F13D0D4F8F6
:10563000A430DA040FD5237D13F0EF0F03D004F16B
:105640001600FEF789FD637D13F0EF0F03D004F120
:105650002600FEF781FDBBF1000F33D1B8F1000F3A
:1056600000F0408104F168021146AB480292FDF758
:10567000C5F9D4F8A430029A13F4805F00F03281A7
:10568000B30803EB430344F6C3712046FFF7A2FDC2
:1056900028E14E45C0F026815A78002A00F0228188
:1056A000A9EBC20903EBC2039AE7FFF707FA8046AA
:1056B00028B1FFF756FD4FF0FF36C846ABE74FF075
:1056C000FF36A8E73B78052B1BD009D8012B11D05A
:1056D000032B24D07B78ABEBC30B07EBC307BAE7F4
:1056E000222BF7D139462846FEF740FE864228BFD6
:1056F0000646EFE73B462A4651462046FEF794FE13
:10570000E8E77B78012BE5D12B78862BE2D17B680B
:105710001BBAB3F5A06FDDD3A4F8A030DAE77B782D
:10572000042B05D04FF0FF339E4228BF1E46D1E721
:105730002B78862BF6D107F1100108460291FFF76E
:10574000EDFC0028EED17B68D7F808901BBA99FAD7
:1057500089F94B45E6D3FA78029912F0400F06D04A
:10576000BA780393204600F06BFBDDE9021397F94A
:105770000320002AD6DABA780292786800BB814604
:1057800015E099F824305B0711D599F82530029A75
:1057900093420CD109F10400039105F027FB029B11
:1057A0000399834203D84846FFF742FB03990391CC
:1057B0004846FFF7A3FA039981460028E1D1B1E7F3
:1057C000581C07D0554A93429ABF4FF47A725343FC
:1057D0006FF00103B9F1FF3F08D0504A91459ABFDD
:1057E0004FF47A7202FB09F96FF00109CDF80090CD
:1057F000029AB4F966010393FFF750FB002891D099
:1058000097F90320F978039B002ABEBFC28C42F0AF
:105810000102C2844A0642BFC28C42F00202C28424
:105820004B4528BF4B467FE79AF80730FF2B59D1ED
:105830006B78002B56D1172E54D92B7AFF2B51D0D1
:105840000AF108083649102240460BF03DFD38B9F0
:1058500034490D220AF118000BF036FD002841D121
:1058600005F1080B5946204601F0E4F9031E0293A6
:1058700038DBA6F1180705F118094A463B4673B90B
:1058800027490393102240460BF01EFD039B78B975
:10589000009342462146584600F036FC22E09E42E4
:1058A00020D35178F1B1A3EBC10302EBC102E6E7CB
:1058B000D4F8A430D80705D4B4F9661103224046C1
:1058C000FEF7E6FFB7B9029B23441B7D99064ED530
:1058D000B4F966115846FFF739FC064620BB394635
:1058E00002F0B8F8FEF74CFF204600F0B8FF07B012
:1058F000BDE8F08F99F80030012B05D14B462A46C0
:1059000051462046FEF790FD99F80130A7EBC307FA
:1059100009EBC309D6E700BF501F002037894100BB
:105920005C3C01004C3C01009AF81830FF2B1BD165
:1059300094F8C05004F1B8012A4604A80BF0F4FC16
:1059400095B129463A4604A800F078FB05460028A0
:10595000C5D040212A46584600F00EFB07460028D5
:1059600072D101462846BBE760213D46F2E79AF82E
:1059700018300097A3F1FF025342534189E79AF888
:105980000730FF2BAED16B78002BABD1172EA9D9E6
:105990002B7AFF2BA6D09AF81830FF2B02D12B7947
:1059A0005B069FD4A6F1180805F118073A4643464E
:1059B000E3B9B4F9661105F10800FFF7C7FB064625
:1059C00000288FD0B8F1000F8CD03B78212B07D165
:1059D000CDE900763B462A4651462046FEF72AFC92
:1059E0007B78A8EBC30807EBC307EBE79E42FFF405
:1059F00079AF517800293FF475AFA3EBC10302EBF7
:105A0000C102D5E76B68B4F966215A804FF47A7108
:105A1000C5F80080002007F09DFC06F12402034633
:105A200044F6C271284631E6D8F80430FF22DA7114
:105A300000231A461946184601F0CEFC05460028F8
:105A4000E0D1294640464BE742460021FEF709FBDC
:105A500080460028E8D14146384641E738B504463B
:105A600000F0F6FE44F6C3712046FFF775FAD4F84D
:105A7000A430DA0432D594F89C30022B42F210752F
:105A80000AD9033B4FF47A6202FA03F31D444EF63F
:105A900060239D4228BF1D46A8421AD911492046BD
:105AA00000F0B6FB94F89C30092B9CBF013384F8BE
:105AB0009C3094F89C30022B03D9D4F8A430DB043A
:105AC00007D52B4604F1680244F6C3712046FFF760
:105AD00081FB2046BDE8384000F0C1BE4FF47A6536
:105AE000DAE700BF1C3C010073B50D460446FEF723
:105AF00041FEA5F59F4142390D2914D8DFE801F098
:105B0000071813131313131313131C68136C34495E
:105B1000234640F20222022000F0F4FB18B90921CA
:105B2000204601F097FF02B0BDE87040FEF728BEA6
:105B30002046FFF793FFF6E72368988EC0F3041022
:105B400000F07BFE274B05461868436901330FD0F0
:105B50000AF0C5FD0646284600F07AFEA36AB34265
:105B60000AD82046FFF764F9284600F078FEDAE705
:105B700083685B689847EDE7E36AB342F4D8211D78
:105B800005F11600019105F031F994F825300199DD
:105B900083429FBF2B7D23F01F0343F008032B7527
:105BA00005F1260005F022F994F8253083429FBFC5
:105BB0006B7D23F01F0343F008036B75A36A04F1A8
:105BC00014029B1B44F6CC712046FFF703FBCBE786
:105BD0002046FFF7C6FAA6E72046FEF7BDFAA2E781
:105BE0000000FFFFCC5801002DE9F04387B00D46BF
:105BF000044617460021102202A8DDF838901E4600
:105C00000BF094FC0DB9FBF71DFD802FB84628BFA3
:105C10004FF080085FFA88F2294602A805F00AF9D9
:105C20002B49102202A80BF04FFB00284DD0294928
:105C3000082228460BF048FB002846D02B78FF2B83
:105C400043D0B14541D8FEF795FD3346CDF80090DD
:105C5000424629462046FFF721F9064630B9FEF7AD
:105C60008FFD6FF00B0007B0BDE8F08320B200F0AD
:105C7000E4FD044618B9FEF783FD0020F3E700F0C9
:105C8000E7FDD4F8A430DA0411D42946204600F008
:105C9000E5FF00280BDB04EB00102946163005F069
:105CA000A5F8404522BFF38C43F00103F38494F838
:105CB0009E30DB0705D57F2F9EBFF38C43F0020398
:105CC000F384204600F0CBFDD5E76FF01500CAE75E
:105CD0005C3C01002C3C0100F8B5054617460E4619
:105CE00009B9FBF7AFFCFEF745FD00242046FFF79E
:105CF00005F80446A8B12368002BF2D094F82520BB
:105D0000BA42F3D125B19B8EC3F304139D42EDD16A
:105D1000211D304605F06AF8B842E7D32046FFF768
:105D200087F8BDE8F840FEF72BBD2DE9F0410C687F
:105D300007460E461546FEF71DFD2046FEF7DEFF20
:105D4000044600B3D4F80080B8F1000FF5D094F801
:105D500024305B07F1D5F7B994F825302B74102265
:105D6000002128460BF0E2FB94F82520211D28464F
:105D700005F060F8B8F83430C3F304136B82A36AFB
:105D80006B61E36AAB61FEF7FBFC201E346018BF59
:105D90000120BDE8F081B8F83430C3F304139F420A
:105DA000CBD1D9E730B58FB0044610220021684628
:105DB0000BF0BCFB1C4B18684369013330D00AF070
:105DC0008EFC227C21460546684605F033F82822E1
:105DD000694604A805F064F8227C014613480BF0DC
:105DE000C7FC618A12480BF0C3FC61694A1C07D0EA
:105DF000491B4FF47A730F48B1FBF3F10BF0B8FC79
:105E0000A1694B1C07D0491B4FF47A730A48B1FBB8
:105E1000F3F10BF0ADFC09480BF05EFD0FB030BDA7
:105E200083685B689847CCE7CC580100C138010013
:105E3000D9380100F438010005390100393B01006F
:105E4000F0B5044685B00E4617460021102268467C
:105E50000BF06CFBD4F8A430D90406D4B4F9661165
:105E600023480BF085FC05B0F0BDDA07FBD594F8AC
:105E7000C02002AB04F1B801204600F025FB002849
:105E8000F1DB3A463146684604F0D4FF69462046C5
:105E900000F0D0FE051E29DA07233A46694620465F
:105EA00000F02CFE051EDEDB0127D4F8A430DB0455
:105EB000D9D51049082230460BF006FA38B13378AC
:105EC000FF2B0BD1737803F00F03022B06D162195D
:105ED000137D23F01F0343F010031375002FC2D06E
:105EE00004EB05101630FEF737F9BCE70027DCE7B6
:105EF000193901002C3C010070B504461846FEF724
:105F0000B0F80646B8B14368FF22DA7100231A469A
:105F10001946184601F060FA054628B93146304660
:105F200001F0EAFD284670BD43680CB1B4F9664142
:105F30005C802E60F6E70546F4E738B50D4604466A
:105F400010B10378FF2B01D1FBF77CFB1823002253
:105F500087212846FDF717FD68B1436800221A71B2
:105F60005A719A71DA7121686268DA609960A16881
:105F7000E2685A61196138BD70B50D46164604468F
:105F800010B10378FF2B01D1FBF75CFB1823002233
:105F900088213046FDF7F7FC78B14368002225F0F0
:105FA0001F051D71DA719A715A7121686268DA6091
:105FB0009960A168E2685A61196170BD08B5002254
:105FC00008238521FDF7DFFC28B1436800221A7100
:105FD0005A719A71DA7108BD0731002310B5044671
:105FE000104601F0F802194601F070FE20B1426837
:105FF00014708368DB08537010BD70B506460D46FB
:1060000018460231FFF7E8FF044658B1436882683A
:106010000233023A002118460BF088FA2A4631462C
:106020000BF082F9204670BD10B500B109B9FBF73D
:1060300009FBBDE810400123FFF7DFBF10B500B139
:1060400009B9FBF7FFFABDE810400223FFF7D5BFFF
:106050002DE9F7430A9D0C4616469846074610B1AF
:106060000378FF2B01D1FBF7EDFA0029FBD0B8F143
:10607000000FF8D0084600F0EBFB36B9324639463F
:10608000204600F0FEFD0646B8B11D4910223046FC
:106090000BF01AF988B194F8C09004F1B8014A469F
:1060A00068460BF041F9B9F1000F06D02A4649467F
:1060B0006846FFF7B9FFE8B1054638462946FFF7BD
:1060C0003CFF0746B0B10346424631462046FFF743
:1060D00013FF054668B103460A4940F20222022036
:1060E00000F010F930B1204600F0B9FB03B0BDE874
:1060F000F0833D460021284601F0ACFCF3E700BFE9
:106100005C3C01000000FFFF2DE9F04387B00D4625
:106110000E9E14469946074610B10378FF2B01D115
:10612000FBF790FA0029FBD0002AF9D0084600F0CE
:106130008FFB3946284600F07DFDB0F100085CDB9E
:106140003049102220460BF0BFF830BB2E4B02AC7A
:1061500003F1100C18685968224603C208336345DE
:106160001446F7D1002495F8C09005F1B8014A46CD
:1061700068460BF0D9F8B9F1000F3BD032464946DA
:106180006846FFF75BFFC0B3A84498F814309B063D
:1061900001D444F0200406460FE0224602AB04F18D
:1061A000100C106851681C4603C40832624523462F
:1061B000F7D14024B9F1000FD5D1214632463846F7
:1061C000FFF7DAFE0446C0B1034602AA00212846C2
:1061D000FFF792FE064678B103460C4940F20222D0
:1061E000022000F08FF840B1284600F038FB07B0DD
:1061F000BDE8F0833046CEE726460021304601F068
:1062000029FCF1E75C3C01000C3C01000000FFFFB1
:106210002DE9F3410E46054608B9FBF713FA214B69
:10622000002908BF1E4600F013FB00223146284615
:1062300000F027FD8046A0B195F8C04005F1B801F7
:10624000224668460BF070F864B121460022684689
:10625000FFF7EAFE044628B90021204601F0FAFBC8
:1062600017E004462046FFF7A9FE07460028F3D0B2
:106270000346324641462846FFF73EFE044670B1CB
:106280000346094940F20222022000F03BF80028B0
:10629000E2D0284600F0E3FA02B0BDE8F0813C46C7
:1062A000DAE700BF1C3C01000000FFFF00B589B029
:1062B00006930A9BADF81C30BDF82C308DF81410F5
:1062C000ADF81620ADF80630024605AB03A901A8CB
:1062D0000293FBF74BFCBDF80E2040F205239A42D7
:1062E00001D0FBF7AFF9049809B05DF804FB07B5DE
:1062F000019101466846ADF80220FBF71BFC03B094
:106300005DF804FB2DE9FF410446019117461D4647
:1063100001F0C8FA0199204601F073FB0199064685
:1063200040B1204601F068FB711E0446284601F08A
:106330004FFC2CB901F0D0FA304604B0BDE8F08132
:10634000237A012B0FD0022B16D003BBB4F90C001B
:106350003A462946FFF7CBFF002813DC05212846E3
:1063600001F078FB0EE0E068ADF80A70002202A9A7
:106370000395FBF709FAEFE7E3682946D3E90082C2
:106380003846C047204601F04EFB0446D1E78C2139
:10639000E5E713B590F86531043B012B13D880680D
:1063A00003680DF106025C6905210223A04702285B
:1063B00001D0FBF747F9BDF80630082B14BF0220C7
:1063C000032002B010BD0220FBE730B414461A4689
:1063D000D0F8A430DB0713D590F86551042D09D10E
:1063E000022C07D1806803685C690321A446082356
:1063F00030BC604713462846224630BC04F020BE1D
:106400006FF0850030BC70471FB590F86531052BE3
:10641000044616D0082B14D0042B18D10823ADF84D
:10642000023000230193039305238DF804300DF10E
:10643000020302930223ADF80C30436801A91B69E3
:106440009847D4F8A43043F48053C4F8A43004B07F
:1064500010BD37B50446806803685D6994F86531FE
:10646000043B072B22D8DFE803F0042104210404B5
:10647000210AD4F8A43043F48073C4F8A430022372
:106480000DF106021121A847022801D0FBF7DAF826
:106490004FF4A063A4F8A030BDF80630B3F5A06FA8
:1064A00028BF0023A4F8C23003B030BD02230DF191
:1064B00006021121A8470028ACBFBDF806304FF6F0
:1064C000FF73A4F8A030EFE710B4D0F8A440E407BD
:1064D00005D590F865015DF8044B04F0C7BD6FF079
:1064E00085005DF8044B70471FB500240394ADF898
:1064F0000C30436801941B698DF80410029201A9C5
:10650000984704B010BD50F8A80C03681B691847E1
:1065100008B5044910220AF0D7FEB0FA80F040090D
:1065200008BD00BF5C3C010010B50A4908220446C2
:106530000AF0CAFE48B12378FF2B08D1607800F03A
:106540000F00831E5842584110BD0120FCE7002077
:10655000FAE700BF2C3C010070B585680446FFF7E0
:1065600018FF2B6801465E6904F1B802082328462B
:10657000B04710F1860F08D0D4F8A430002843F0BB
:106580000103C4F8A43006DC70BD94F8C030002BC1
:10659000FAD0FBF757F884F8C000F5E7F8B50446E1
:1065A00008460E461546FFF7B3FF98B95DB104F1F2
:1065B000360503270024314605EB041004F001FCE6
:1065C00028B12046F8BD04F116050227F2E7013490
:1065D000A742F0D14FF0FF30F4E7F8B5067D05464D
:1065E0000F469EB1163004F001FCB0FA80F4640945
:1065F000064664426B7D3BB1394605F1260004F046
:10660000F5FB864238BF01242046F8BD4FF0FF3429
:10661000F0E70378FF2B10B5044603D1407800F073
:106620000F0010BDFFF780FF60B9208840BA20F04E
:106630003F000004000C4FF6C06398420CBF0520D9
:106640000E20EEE70220ECE770B504460D46164634
:106650007AB908B9FAF7F6FFD0F8C8304BB100F0B4
:106660002FF82946204601F085F830B313480BF087
:1066700033F90121284601F0ABFA636829465B68CB
:1066800020469847103016D12946204666B101F0C1
:10669000ADF806468EB109480BF01EF90C212846CC
:1066A000BDE8704001F0D6B901F064F80646204616
:1066B00001F07EF8EEE70021F1E770BD98390100A6
:1066C00010B5044608B9FAF7BDFFD0F8C8307BB161
:1066D0001A685968C0F8C82000221A605A6039B197
:1066E0000122FFF7B1FF2046BDE8104001F060B87D
:1066F00010BD000037B5846839B904F1B00104F168
:10670000A800FCF79AF803B030BD02390729FAD87F
:1067100001A353F821F000BF636700000767000082
:106720009567000095670000956700009567000079
:1067300039670000576700000023ADF8003044F6C9
:10674000D473ADF80230154B0194B3F900106846CC
:10675000FBF7DAF9D7E70023ADF8003044F6D5733C
:10676000EFE7636820469B68984705462046FFF799
:10677000A7FF002DC7D00A4995F910002B4640F21B
:106780000122FFF7BFFD01460028BCD1284601F0D9
:1067900061F9B8E72046FFF793FFB4E7B41D002086
:1067A0000000FFFF30B58BB015461A460023C0E944
:1067B0000333109B436083680C460BB1FAF742FF2A
:1067C0000F998160CDE90703012108A80592FBF725
:1067D0003BFA0E9B029307AB0193084B0093059A7B
:1067E000082329462046FBF72BFC0028E6DD012183
:1067F00008A8FBF729FA09980BB030BD6D680000B6
:1068000090F865210B2A07D80123934013F4376FC2
:1068100014BF0120002070470020704705F0FEBA29
:1068200010B500242046FFF7F9FF08B9204610BD37
:106830004368002BF7D00134F5E710B5044600207B
:10684000FFF7ECFF18B1B0F96631A342F8D110BDE3
:1068500020B1436813B10C30FAF770BF704720B114
:10686000436813B10C30FAF76DBF7047F0B5046898
:1068700085B00546002640F205232046CDE9006696
:10688000ADF80230FFF7E4FF374B1B88A4F8663100
:10689000364BC4F8B430364B1B68C4F8AC3010210A
:1068A00004F1E400C4F8A860FBF7BEF96368204671
:1068B0001B689847A860281DFBF7FEF9A968B1423C
:1068C00004F1A80749DB2046FFF7C9FF41F2332650
:1068D0003846FBF7CFFF0546002839D102A8FBF761
:1068E00093F9002804DC48F20100FBF725FBEFE7F1
:1068F000BDF80A30B3F5017F27D00FD840F202224D
:10690000934211D040F20322934213D063685B6933
:10691000002BDDD002A920469847D9E7B342F5D134
:106920002046FFF7CDFED3E703992A462046FFF71E
:106930008BFECDE763681B6903992046984769463B
:10694000019002A8FBF73AF9C2E76368DB68F3E756
:106950004368002BBCD09847BAE706480AF008FF06
:10696000304605B0F0BD00BF901100200765000063
:1069700094110020C33901002DE9F8430E46054665
:10698000FFF766FF33783489112B0CD8062B0FD90B
:10699000073B0A2B0CD8DFE803F023852A0B506550
:1069A0000B0B0B0B9A003F2B0BD0402B00F09B8066
:1069B000A8687268036831785C693389A047044627
:1069C00008E0012C01D0FAF73DFE2846FFF718FF3A
:1069D000736818702846FFF742FF2046BDE8F88329
:1069E000012CF0D1736895F864211A70F2E70F2C2E
:1069F000E9D92C7D73688CB105F11602194605F1B1
:106A0000260052F8044B41F8044B8242F9D13289F6
:106A1000102A03F110034FF01004DBD96A7D002A1D
:106A2000D8D005F1260205F1360152F8040B43F8DF
:106A3000040B8A42F9D11034CCE7002CC3D0726821
:106A400005F1140305F1160000243189A142C1DDCE
:106A50008342BFD013F8011B0029F6D002F8011BB6
:106A60000134F2E70F2CAED9D6F8048005F13607D1
:106A700005F1660900243389A342ABDDB945A9D0ED
:106A80003846FFF745FD07F1100348B9424657F86D
:106A9000041B42F8041B9F42F9D1103408F110087E
:106AA0001F46E8E7072C8ED9D5F8A4207368D207D3
:106AB0007FF57EAF95F8C02005F1B8012846FFF7B5
:106AC00003FD10F1860F04463FF472AF82E773882E
:106AD000022B7FF46DAF022C7FF475AF7368B5F8AD
