:10100000000200204D230000E9220000A52200007C
:10101000F92200000923000019230000000000004D
:101020000000000000000000000000008922000015
:1010300029230000000000003D22000039230000A9
:1010400013B40000D1BC000013B400000D27000051
:101050002927000013B4000013B4000013B40000EB
:1010600013B40000A5B70000ABB7000013B4000034
:1010700013B4000013B4000013B4000013B4000054
:1010800013B4000029B5000013B4000013B400002D
:1010900013B4000013B4000013B4000013B4000034
:1010A00013B4000013B40000B1B70000B7B70000DC
:1010B00013B4000013B400000000000000000000A2
:1010C00013B4000013B4000013B40000452700005F
:1010D00013B4000013B4000013B4000001C50000F5
:1010E00013B4000013B4000013B4000000000000AB
:1010F0000000000013B400000000000061270000A1
:1011000010B50446016804480DF0C0FB216803488F
:101110000DF0BCFB012010BDF0000100000101003A
:101120000368042B70B505460C4608D10B682248AD
:10113000598849BA89B2BDE870400DF0A7BB032BAE
:1011400005D01E480DF056FC29681D48F3E70B68D2
:101150001C485B781C495A09022A08BF014603F063
:101160001F031A480DF092FBA389FBB1204609F03A
:10117000C5FCA28938B1282805D023685B785B09B3
:10118000043B012B06D8A3681148BDE87040114606
:101190000DF07CBB11460F480DF078FBA189A068CB
:1011A0000023BDE8704010220AF09CBEBDE87040EC
:1011B00009480DF01FBC00BF54010100740101007B
:1011C0008D010100460101004E010100980101005E
:1011D000BA010100AC020100CB01010010B51149B8
:1011E00004460DF0C1FCA8B10F4920460DF0BCFC2F
:1011F00090B10E4920460DF0B7FC78B10C4920465D
:101200000DF0B2FC60B10B4821460DF03FFB4FF0F2
:10121000FF3010BD0120FCE70220FAE70320F8E7C9
:101220000420F6E7DB010100DF010100E401010019
:10123000E8010100EF0101002DE9F0470128ADF5BB
:10124000207D07460D4604D12846FFF759FF044686
:1012500017E04E68524930460DF086FC0446A8B9A6
:1012600002F0DCF941F2336105464E480DF00EFB09
:101270004D4B4E4819880DF009FB4D4829460DF09D
:1012800005FB20460DF5207DBDE8F0877B1F012B77
:10129000DAD83046FFF7A2FFB0F1000AD4DB2E699E
:1012A000002ED1D033782F2BCED1062F48D1D5F8B0
:1012B000149048460DF024FE04463046D5E90287D6
:1012C0000DF098FB30460DF01BFE5346CDE9006053
:1012D0004FF4007220A909A801F096FE099A13782C
:1012E00023F0300313709CB300220C2109A809F0ED
:1012F00033FD012109A809F03EFDBDF83030A342BD
:10130000054620D30B98224649460DF09BF825440C
:10131000099B2848598849BA2A4689B20DF0B6FA7D
:10132000424602A904A809F0FBFF002816DA224869
:101330000DF060FB21480DF05DFB4FF0FF34A0E79E
:101340000024A146B9E71E480DF054FB012498E79C
:10135000214609A809F00FFD0546D9E7029810B10A
:1013600005F060FE80B2ADF82000042338460393F8
:101370000CF0D6FD80B2ADF8220008B91148D7E7CD
:101380000024CDE90044104B03AA294620A801F00F
:1013900087FE0028CED0044A13880133138070E7FB
:1013A0000302010008020100180600202D020100BE
:1013B0004502010090020100B80201001303010080
:1013C0005D020100E7020100211100000368042B07
:1013D00070B505460C4608D10B682248598849BAB1
:1013E00089B2BDE870400DF051BA032B05D01E48FC
:1013F0000DF000FB29681D48F3E70B681C485B787B
:101400001C495A09022A08BF014603F01F031A4863
:101410000DF03CFAA389FBB1204609F06FFBA289CD
:1014200038B1282805D023685B785B09043B012B81
:1014300006D8A3681148BDE8704011460DF026BAE1
:1014400011460F480DF022FAA189A0680023BDE8DB
:10145000704010220AF046BDBDE8704009480DF00A
:10146000C9BA00BF54010100740101008D010100DF
:10147000460101004E01010098010100BA0101007E
:10148000AC020100CB01010030B5324CADF5217D3D
:1014900020460DF0AFFA0A23CDE900434FF4007265
:1014A000012320A909A801F0AFFD099A137823F0C0
:1014B000300313700C21002209A809F04DFC012112
:1014C00009A809F058FCBDF83030002B3CD00B9B2C
:1014D00031221A70099B5988451C49BA2A4689B29B
:1014E0001D480DF0D3F91D4A02A904A809F018FF00
:1014F000002804DA1A480DF07DFA1A4825E002980F
:1015000010B105F08FFD80B2ADF82000042316481D
:1015100003930CF005FD80B2ADF8220008B9134822
:10152000E9E70024CDE90044114B03AA294620A88D
:1015300001F0B6FD0028E0D00E4A13880133138075
:1015400020460DF5217D30BD0B480DF053FA4FF0CC
:10155000FF30F6E758030100900201006303010029
:10156000B8020100130301006B030100E702010050
:10157000CD130000180600205D02010008B50848E0
:101580000DF038FA002107480DF080F9FFF77CFFD5
:1015900020B905480DF02EFA002008BD0348F9E7F0
:1015A00070030100810301009B0301001E03010081
:1015B00070B5064E064CA41BA4080025AC4200D111
:1015C00070BD56F8253098470135F7E70410010043
:1015D0002C10010013B500200AF07CFF014608B969
:1015E00000F030F8084C20460CF00AF920460BF0C9
:1015F00001FC064B0648009401224FF480610CF078
:101600000BF902B010BD00BF1C0A0020A4030100AA
:101610001A060020704700004FF080435722C3F89D
:101620001C25BFF34F8F0549054BCA6802F4E062E1
:101630001343CB60BFF34F8F00BFFDE700ED00E029
:101640000400FA0508B50249032000F02BF800BF9A
:10165000B403010008B5FFF7ABFF03480DF0CAF96A
:10166000FFF78CFF002008BDC60301001FB5EFF394
:10167000108372B6074B029300230193064B00932D
:1016800007220C234FF4C061044800F0A3FC00F0D3
:10169000C9FD00BF0704010055160000880B00209B
:1016A0007047000008B5124B1A6805460C46BAB9D7
:1016B000012203281A6003D171460E480DF0E6F8A6
:1016C00021462846FFF7ECFF21460B480DF0DEF8D7
:1016D0000AF0ACFF0A200DF007F908480DF08AF96E
:1016E000EFF3108372B600F02FFDFFF795FF00BFF8
:1016F000881100200C040100100401002C040100DA
:1017000038B50446EFF3108372B60268124DB2B1D9
:1017100083F31088BFF35B8FC288BFF35B8F2B8886
:1017200012B21BB29A4210D12B88BFF35B8FE380B9
:10173000BFF35B8FA3880133A380012038BD4FF036
:10174000FF32026083F31088EEE711B900F054FA1B
:10175000EAE70020F2E700BF901100200021FFF728
:10176000CFBF000008B50F4BBFF35B8FC188BFF33D
:101770005B8F1B8809B21BB2994201D0FFF762FF51
:101780008388002BFAD0013B9BB2838043B9BFF31F
:101790005B8FC380BFF35B8FBDE8084000F05CBA8D
:1017A00008BD00BF901100202DE9F04104460E460F
:1017B0001046EFF31088474672B62568B5B155F864
:1017C0000C392360D1E900012B6983E80300284626
:1017D0000C2100F0B3FA687988F3108800F0F0FA71
:1017E000012001E088F31088BDE8F081D4E90213FC
:1017F0005B1A21698B4212DD0028F3D0114B1D6862
:101800000921284600F09AFA2946201D00F0C8FB5D
:1018100087F3108800F0A4FBEFF3108772B6E2683C
:10182000094B511C1B883380E160216963690A40C0
:1018300096E8030003EBC20383E8030087F31088F4
:10184000CEE700BF941100209011002070B50B4628
:1018500004461046EFF3108672B6D4E902128A42AB
:1018600019D0481CA06020696269014002EBC101E7
:1018700003C983E8030065680DB355F80C3963604C
:1018800028460C2100F05AFA687986F3108800F097
:1018900097FA012012E078B10A4A156809212B61F4
:1018A000284600F04BFA2946204600F079FB86F3E3
:1018B000108800F055FBECE786F3108870BD86F3C6
:1018C0001088E6E794110020F8B50446EFF310867F
:1018D00072B6344F3A68506A00285CD0D2E90630BC
:1018E000984258D0581C9061106A034039B9516928
:1018F00029B9591C03D186F310881846F8BD002B6E
:101900004DDB516A01EBC30103C984E8030055694B
:101910006DB355F80C195161002B0DDBD2E907347A
:101920009169506A591A8C42A9BF591C4FF0FF3374
:101930002340D16100EBC3042B6993E8030084E8E2
:1019400003002B79062B04D186F3108821E0FFF7E2
:1019500079FE002328462B610C2100F0EFF968790D
:1019600086F310880E2814D800F02AFA11E0002B14
:10197000EADA0421104600F0E1F986F310880A4BF8
:101980004FF080525A60BFF36F8F3B681B79042B76
:10199000DDD00123B1E74FF0FF330029A7D0146158
:1019A000B5E700BF9411002000ED00E00346D0E948
:1019B000072010B59C69141BA04201DA002010BD5D
:1019C000541C0240DC61F9D4586A00EBC20203C91E
:1019D00082E803001A896FEA42426FEA52421A8192
:1019E000184600F055FA0120E9E7000008B50E4B53
:1019F00053F82130A3B11A79042A0BD103C81A690C
:101A000082E8030018460C2100F098F9074B0120EA
:101A1000186008BD01461846BDE80840FFF7C6BF7C
:101A20004FF0FF30F5E700BFE011002098110020D3
:101A30002DE9F0411D46294B53F82140284B1B88C6
:101A40000380064690462CB985F310884FF0FF308E
:101A5000BDE8F0812379042B36D0224B0146204685
:101A60001F68FFF7A3FF78B185F310883B79062B39
:101A700002D01D4B1B682BB11C4B4FF080525A609B
:101A8000BFF36F8F0120E3E7B8F1000F02D185F3B8
:101A90001088DDE73B793E61062B0CBF062105214E
:101AA000384600F04BF904F11400394600F078FA9A
:101AB00023896FEA43436FEA53432381204600F0B2
:101AC000E7F985F31088D7E7D0E90001236983E8B7
:101AD00003000C21204600F031F9F2E7E01100206C
:101AE00090110020941100209811002000ED00E0DA
:101AF00010B50146EFF3108472B6054B1B880380C6
:101B0000044B1868FFF752FF84F3108810BD00BF24
:101B1000901100209411002021230380FFF766BF5D
:101B2000EFF3058313F0FF0F01D0FFF7F5BF064B6E
:101B30001B881BB2994201D1FFF7DABFEFF3108384
:101B400072B60122FFF774BF9011002010B4EFF3BA
:101B5000058212F0FF0203D05DF8044BFFF7DCBFF3
:101B6000074B1B881BB2994203D15DF8044BFFF76A
:101B7000BFBFEFF3108372B65DF8044BFFF758BF99
:101B80009011002038B5EFF3108572B60F4BB0F905
:101B9000002053F822400CB9FFF754FD2379062B9F
:101BA00004D085F310884FF0FF3038BD03C9236996
:101BB00083E8030020460C2100F0C0F8607985F32B
:101BC000108800F0FDF80120EFE700BFE0110020D1
:101BD0000121FFF779BE000008B5064B4A1E1B68BD
:101BE0001140586201D0FFF72DFDC3E906111A62BA
:101BF00008BD00BF9411002070B50446EFF31086B5
:101C000072B603682BB94FF0FF33036086F3108878
:101C100070BD0F4B1D680DB9FFF714FD0321284659
:101C200000F08CF8236801330DD105F10C0323601B
:101C30000023EB6086F31088064B4FF080525A6009
:101C4000BFF36F8FE4E72946204600F0A9F9F1E7DA
:101C50009411002000ED00E070B50546EFF310860A
:101C600072B6046814B986F3108870BD631C02D183
:101C700000230360F7E754F80C3903600C21204679
:101C800000F05CF82B6813B94FF0FF332B606079DC
:101C900086F31088BDE8704000F092B803790B2BF2
:101CA00004BF0C230371836A1A68934204D0B0F90D
:101CB000061002480CF0EABD704700BF390401006D
:101CC00070B5184C184D23682E6843BB16B13046CA
:101CD000FFF7E4FF00F0E0FA2368002BFAD00020C1
:101CE000124B00221A602368114AB3FA83F352F8A8
:101CF00023301C680C3C0B23B44223710DD008B177
:101D0000FFF7CCFF0B4BA16AB4F906201A801F31F4
:101D1000094A2C60022000F00BFA204670BD3046C4
:101D2000DEE700BF8C1100209411002098110020E4
:101D3000A011002090110020080006160A29F0B515
:101D400003791BD90A2B15D847791B4A52F827600B
:101D50003C4600F10C057EB13368C36052F8273071
:101D60001D6042F82450154A4FF000431468FB40B0
:101D7000234313600171F0BDC560F2E70A2BF9D966
:101D80000D4B457953F825203AB11468A2420BBF98
:101D90000022246843F825201460427953F8223049
:101DA000002BE7D1054C4FF0004323FA02F22368E1
:101DB00023EA02032360DDE7A01100208C1100203C
:101DC0000B4B1B681A790A2A02D95B7983420ED918
:101DD000EFF3058313F0FF0F03D0064B01221A60C7
:101DE0007047054B4FF080525A60BFF36F8F7047BA
:101DF000941100209811002000ED00E008B5EFF3E9
:101E0000108372B6084B094A1B88094C1BB200218B
:101E100042F82310074A20681368013B1360FFF75C
:101E20008DFF216000F0FEF990110020E0110020EC
:101E3000941100209C1100200C4B10B51B68EFF38F
:101E4000108472B61A8910420DD118610721184604
:101E5000FFF774FF84F31088054B4FF080525A60EF
:101E6000BFF36F8F10BD84F31088FBE7941100203F
:101E700000ED00E010B50346EFF3108472B602885F
:101E800002EA010022EA0101198084F3108810BDE2
:101E900010B50379048A072B04D0082B0DD0002439
:101EA000204610BD03891C40002CF9D00C21FFF7FF
:101EB00045FF054B01221A60F2E7038934EA030368
:101EC0000CBF01240024EFE79811002013B5064B46
:101ED00001901C68FFF7B0FF019904F1080002B0FF
:101EE000BDE81040FFF7C6BF9411002010B5EFF316
:101EF000108472B6038902791943072A038A018183
:101F000004D0082A14D084F3108810E01940002966
:101F1000F9D00C21FFF712FF084B01221A6084F35D
:101F20001088074B4FF080525A60BFF36F8F10BD7F
:101F30008B430CBF01210021E9E700BF981100206D
:101F400000ED00E0431E9BB21F2B05D8034B53F856
:101F5000200010B1C06A704700207047E0110020D7
:101F6000EFF3108072B60B4B1B681A790A2A07D957
:101F70005A79094B53F8221011B1096843F822101D
:101F800080F31088054B4FF080525A60BFF36F8F7B
:101F9000704700BF94110020A011002000ED00E068
:101FA00038B50B790A2B01D9FFF74CFB4C7901F1BD
:101FB0000C020346006818B110F8075CA542F8D976
:101FC000C8601A6038BD031F53F8042F9A42FBD033
:101FD000181A70470F2A2DE9F84F0546894617460B
:101FE000984633D810F003031DBFC3F10402043B2D
:101FF0005B180B46A3F1340318BFAD1823F003039D
:1020000018F0080F05EB030417D12D6003E01260F0
:102010000432A242FBD3EFF3108B72B625490122A2
:1020200051F822600FFA82FA9EB10132212AF7D1CB
:102030008BF310886FF08A0A38E02A46E9E702211C
:102040002046FFF77BFE8BF310882FE06FF0150A18
:102050002CE041F822402A46DDE90A01A4F806A056
:1020600000F092F80C9B144AE3624FF0FF33C4E98E
:10207000083613682060013318F0010FC4E90366C5
:10208000C4E90566A562C4F8309067712671E661FF
:102090001360D4D10C212046FFF750FE18F0040F36
:1020A000D1D18BF310883846FFF78AFE5046BDE841
:1020B000F88F00BFE01100209C11002008B5034BF1
:1020C00053F8200008B9FFF7BDFA08BDD404010099
:1020D0000C4B0D4A10B540219A600C4CE02283F85D
:1020E0002220D9770022A0180132302A80F800136C
:1020F000F9D11A6942F010021A615A6942F4007269
:102100005A6110BD00ED00E00010000000E100E0A9
:10211000064A536843F00503536052F86C3C43F49D
:10212000803342F86C3C0020704700BF90ED00E027
:10213000044B21F01F0142F001029860D960002099
:102140001A61704790ED00E008B5EFF30581C1F327
:10215000080119B1024810390CF098FB00BE08BD07
:1021600008050100BFF34F8F0549064BCA6802F40A
:10217000E0621343CB60BFF34F8F00BFFDE700BFAA
:1021800000ED00E00400FA05134423F003034FF0D0
:10219000773210B543F8042C5A0758BF4FF08832F5
:1021A000A3F104045CBF43F8082CA3F108044FF02A
:1021B000807344E902030D4B44F80C3C00220323D6
:1021C00044E9053202200123224644E907306FF03A
:1021D000020344F8201C42F8243D0B2342F8043D3E
:1021E000013B032BFAD1A4F1440010BDFD1D0000FA
:1021F0000548064A064B0168914201D0181A7047FB
:102200009842FBD20430F6E700000020FEE7FEE72C
:1022100000020020EFF3088070470000004870477C
:1022200000000020EFF3108362B6034B4FF08052A2
:102230005A60BFF36F8F00BF00ED00E0114910B589
:102240000C6872B6FFF73CFD62B6A04208BF10BD35
:102250002146BDE8104049B1EFF309821EF0100F8E
:1022600008BF22ED108A22E9F04F0A600068B0E84A
:10227000F04F1EF0100F08BFB0EC108A80F30988F1
:102280007047000094110020024B4FF080525A60BA
:10229000704700BF00ED00E030BF62B6BFF36F8F44
:1022A00072B670470D4B0E4A0E496846904203D8ED
:1022B000984201D9002102E009468D4601210420FF
:1022C0007246024202D1EFF3088001E0EFF3098089
:1022D0002DE9F00F6B4600F087F800BF5801002091
:1022E000000004200002002008B502490520FFF785
:1022F000D9F900BF1705010008B502490720FFF70B
:10230000D1F900BF2305010008B502490820FFF7F5
:10231000C9F900BF3605010008B502490920FFF7D9
:10232000C1F900BF4805010008B502490A20FFF7BE
:10233000B9F900BF5C05010008B502490B20FFF7A1
:10234000B1F900BF6E050100704770471C4AD2F812
:10235000883043F4700310B5C2F88830FFF7F4FFFB
:102360006A46184B1848194693421DD3174B184A12
:10237000184883421BD3184B184A002093421BD3A2
:1023800021B1174A17490120FFF7D2FEFFF7C0FE1F
:10239000FFF7DBFF00F078F9FFF73CF90BF0FEFFE9
:1023A000BDE81040FFF762B943F8040BDCE752F8D0
:1023B000044B43F8044BDCE743F8040BDEE700BFB3
:1023C00000ED00E000000020FEE7FEE70002002034
:1023D000301001001406002018060020A84E00202E
:1023E000080006161F0000202DE9F04F2DED068B8A
:1023F00089B0904604935A4B9A6B08EE102A5A6B98
:10240000D3F828A008EE902ADA6A09EE102A1A6B8F
:10241000DB6B0AEE103A534B09EE902A1A68524BC6
:102420009A420446894602D050480CF0E3FAB9F1CA
:10243000000F66D04E480CF0DDFA00252E464D48C0
:102440000CF0D8FA51464C480CF020FA19EE101A4C
:102450004A480CF01BFA19EE901A49480CF016FA8B
:102460001AEE101A47480CF011FA1AF4004F04D073
:1024700018EE101A44480CF009FA1AF0800F04D034
:1024800018EE901A41480CF001FA41480CF0B2FAEB
:10249000404841460CF0FAF9B9F1000F2CD118F080
:1024A000080F56D03C4B198809B208460391FFF734
:1024B00049FD0399024639480CF0E8F938480CF018
:1024C00099FA314637480CF0E1F96946364BC91A9A
:1024D00003D5364849420CF0D9F9049B1E462046E4
:1024E0008268C36801698C4641698E46AD463146B3
:1024F00091E8F00F4168006801BE2D490620FFF702
:10250000D1F8D4E90230D4E90012E76903902069D8
:102510000591D4E905B60AEE900AB8052548CDE93B
:10252000062354BF04F1200504F124050CF062FADF
:10253000039B059900932048DDE906230CF0A6F9DA
:102540001AEE901A009733465A461C480CF09EF932
:1025500075E7217F1A4810390CF098F9AEE700BFF3
:1025600000ED00E000000020FEE7FEE77C05010032
:102570009205010057060100600601007006010087
:102580008006010090060100A0060100B0060100CF
:10259000C0060100C506010090110020D706010009
:1025A0001607010047070100580100206F070100CE
:1025B0009C070100C1050100DC05010019060100AE
:1025C000F006010070470000EFF3108172B6094B6E
:1025D0001A680132012A1A6009D14FF080430020A5
:1025E000C3F800011A60D3F80021002AFBD081F360
:1025F0001088704764120020094A08B513680BB9A7
:10260000FFF720F8EFF3108172B61368013B1360F7
:102610001BB94FF0804301225A6081F3108808BD36
:10262000641200204FF08043D3F8182412F4803253
:1026300009D10121C3F81815C3F804219960D3F812
:102640000421002AFBD070470C4B1B78062B12D1BB
:102650000B4B186810F00F000DD104331B6803F00A
:10266000F003302B08D1074B1B6813F0F00F0CBFA1
:102670000120002070470020704700BFE00F00F0ED
:10268000E40F00F0EC0F00F008B5FFF7DDFF20B11C
:10269000134AD36823F08073D360FFF7D5FF10B1DE
:1026A000104B03221A60FFF7CFFF30B14FF0804389
:1026B0000022C3F80C21C3F81021FFF783FF0A4B57
:1026C0000122C3F84025FFF703FD084A136943F0D0
:1026D000100313610AF06CFBBDE8084009F052BC1E
:1026E000F0ED00E0A005004000E0014000ED00E05A
:1026F000044B1B682BB1044B4FF080525A60BFF360
:102700006F8F70479811002000ED00E008B5044A73
:10271000044B10681B689847BDE80840FFF7E8BF06
:10272000781200206812002008B5044A044B506853
:102730005B689847BDE80840FFF7DABF78120020D1
:102740006812002008B5044A044B90689B689847BB
:10275000BDE80840FFF7CCBF7812002068120020C7
:1027600008B5044A044BD068DB689847BDE80840C8
:10277000FFF7BEBF781200206812002007F0F4BFF8
:10278000D0E902301847000070B50E46154600210A
:10279000102204460BF058FF024BE560C4E90136F5
:1027A00070BD00BF81270000036802463BB1186876
:1027B000834219BF02681A600023136070471846ED
:1027C000704708B500B109B9FEF73CFFEFF310827E
:1027D00072B60B6833B903686BB11B680B60036892
:1027E00019600160406882F3108830B1BDE808408C
:1027F0000121FFF77BBB0960F3E708BD08B5EFF3E4
:10280000108172B6FFF7D0FF81F3108808B1002362
:10281000036008BDF8B50D46044600B109B9FEF7DE
:1028200011FFEFF3108772B6002621464B68002B8C
:10283000F5D00846FFF7B8FF083110B90136B542A8
:10284000F4D187F3108818B90120FFF73FFBE8E7C0
:1028500000230360F8BDD0E90501FFF7B2BF000017
:1028600001600349C0E90523C0E90310704700BFB8
:10287000572800000A46011D00680BF00BBA0146FC
:10288000006810B104310BF0EBB9704738B58569B9
:10289000044685B10A4B1868436901330CD00BF02C
:1028A000A2F923696A68C11A8A4226BF9B181B1ABB
:1028B00000236B60206138BD83685B689847F0E750
:1028C000400E01008369084A10B5044610682BB118
:1028D0005A6821460BF0DEF9206110BD2146BDE8A3
:1028E00010400BF0BDB900BF400E0100836900220B
:1028F00010B504465A60A06930B1436823B9036833
:10290000A36163699847F6E72046BDE81040FFF7EA
:10291000D9BF000070B505460C46EFF3108672B6BD
:10292000FFF7B4FF05F118031A68EAB922601A68C4
:102930001AB151686068091A51601C60AB69A34202
:1029400006D10D4B6268186829460BF0A3F928617F
:1029500086F31088094B1B682BB1094B4FF080524E
:102960005A60BFF36F8F70BD616850688142DDD3DC
:10297000091A61601346D7E7400E01009811002044
:1029800000ED00E070B504460D46EFF3108672B618
:10299000FFF77CFFA26904F118012AB92046FFF76E
:1029A00091FF86F3108870BD9542136802D01146DE
:1029B0001A46F2E70B60002BF0D05A6869680A44A7
:1029C0005A60EBE7034B4161C0E9023000238361A9
:1029D000704700BFED28000038B1054B0A0901F02F
:1029E0000F019A5C5B5C027043700220704700BF6D
:1029F000AF070100F8B50D465700064610B18C1818
:102A0000A54201D13846F8BD304615F8011BFFF745
:102A1000E3FF0644F4E703461A4601331178002920
:102A2000FAD1101A7047F8B504460E4615468F18AD
:102A3000B74201D16800F8BD204617F8011DFFF725
:102A4000CBFF0444F4E707B5042201910DEB02012A
:102A5000FFF7E9FF03B05DF804FB00000E4B99425D
:102A600030B517D80A2301221C468B420FD960B11A
:102A700083180A25B1FBF5F405FB1410303003F878
:102A8000010D084609282146F4D8104630BD63439D
:102A90000132EAE70A22EAE7FFC99A3BFFF7DEBF05
:102AA00038B505460C4604B938BD224629460120F2
:102AB0000CF09AFB0028F7DB241A0544F3E707B56E
:102AC000014601A8FFF788FF022101A8FFF7E8FFF0
:102AD00003B05DF804FB07B501466846FFF7B3FF96
:102AE00008216846FFF7DCFF03B05DF804FB10B572
:102AF0000446FFF790FF01462046BDE81040FFF76F
:102B0000CFBF90B1D9B1002340EA0102D2070ED560
:102B1000C20710D5CA0710D581423EBF02460846FB
:102B20001146091AF6D100FA03F108467047400829
:102B300049080133E8E74008EAE74908EAE70146BF
:102B4000F3E72DE9F04707460D4614460AB9FEF7AC
:102B500079FD11462846FFF7D4FFA042F7D8A842D6
:102B600041D8B4FBF0F2B5FBF0F04FF00048B0FAFA
:102B700080FE0021CEF1200C28FA0EF80E4600242B
:102B800000250023CEF15F0E14EB040A45EB050986
:102B900010EA080F54464D461EBF4AF0010A4D4642
:102BA00054469D4208BF94424FEA46064FEA5808F1
:102BB00011D3A41A65EB030546F00106002E0EDAC8
:102BC00054EA050300D00136CCF1200C3E6087F8B2
:102BD00004C0BDE8F087002EF0D10CF1FF3C0131BC
:102BE0007145D1D3ECE74FF0000C6646ECE70000EE
:102BF0000C4A10B5D2F80C41002303601CB1D2F886
:102C00001041A14207D0D2F8283153B1D2F82C316B
:102C1000994206D101231C2101FB032303F586738E
:102C2000036010BD000200202DE9F04192B014466F
:102C30002F23009306460F46402302AA0B2120466D
:102C400007F081FF002823DD23685B7803F01F0372
:102C5000013B01249C40A4B24FF000080225736898
:102C6000434503D8284612B0BDE8F081306800EB38
:102C70000810386002A907F027FE002805DCF1D112
:102C80003B689B881C4205D1012508F10108E6E755
:102C90000225E7E70546E5E72DE9F041104CD4F8B9
:102CA000DC50002306460F460360A04635B104F110
:102CB000DC0009F0B5FD4FF0FF3560B9D8F8F4300D
:102CC0005BB10848394609F0ABFD08B1054C3460EA
:102CD0002846BDE8F081DC34F9E70125F8E700BFBC
:102CE00000020020F40200202DE9F3410023284FC8
:102CF0000360054601A814460193FFF7CDFFD7F8FE
:102D00000C61DDF80480A6B1B04523D12CB3236853
:102D1000D7F81C211B7803F00F039A421AD1CAB1CD
:102D2000616807F58A700BF05DFB4FF0FF360346D4
:102D300038B3D7F828314BB3434507D184B90124C0
:102D40001C2303FB047404F586742C60304602B027
:102D5000BDE8F0814FF0FF36EBE74FF0FF36EFE7CD
:102D60002368D7F838211B7803F00F039A42EDD17E
:102D7000002AEBD0616807480BF034FB0028E5D14E
:102D80001C2303F586733B442B60DFE70126DDE758
:102D900000020020300300202DE9F843994600236B
:102DA0000360294C80460868A36806780F461546DC
:102DB00006F00F06F3B1E368013333D104F11001DB
:102DC000B9F1000F11D10B7803F00F039E4211D11E
:102DD0003246043104300BF005FB58B91B48294634
:102DE00009F01EFD30B11A4B19E03B685A884B8838
:102DF0009A42F3D0236F23B3636F013314BFA16FE3
:102E00001449B9F1000F0FD03B685A884B889A4299
:102E100017D11148294609F003FD90B10F4BC8F8AE
:102E200000300EE02169CBE70B7803F00F039E42E0
:102E300007D138683246043104300BF0D3FA002849
:102E4000E7D0BDE8F88300BF000200201C0200208C
:102E50000802002078020020840200207002002076
:102E600010B504230360C36A98B004464BB14268AE
:102E7000013214BF826800F10802019201A9002208
:102E800098476368013318BFA2684FF0000318BF6A
:102E90001370236018B010BD1FB514461A4603788E
:102EA000012B09D10023CDE901314068039401A928
:102EB00006F0DEFB04B010BD4FF0FF30FAE7000073
:102EC00010B586B01022002101A80BF0BDFB042331
:102ED0000093104B059300230F481A46694606F0ED
:102EE000F2FA002810DB0D4B0D4C1A680A4800233B
:102EF000C4E9003221460B4A09F078FC0121204642
:102F0000FFF788FC034610B9002006B010BD5B68CF
:102F10009847F3E700003316F018002094110020C2
:102F2000E81800201133000043685A1C012A10B52C
:102F3000044608D82368013B012B22D82046BDE86F
:102F40001040FFF78DBF013B436040F6B831C3F13D
:102F500004034FF4FA609940984009F009FC0146D7
:102F600004F13400FFF786FC2368022B09D0D4E972
:102F7000021204F1140304F16000FFF78DFF002832
:102F8000D8DD10BD7FB51B4EB6F900407CBB1A4B97
:102F90001A481B4DCDE901431A4B00930622082322
:102FA00040F25C41FFF716F830802846D0222146D7
:102FB00040F8084B0BF048FB3022214605F1DC00BD
:102FC0000BF042FB3822214605F586700BF03CFBE6
:102FD0004FF40072214605F5A2700BF035FB09F0A5
:102FE000A3FBC5F8D800B6F9000004B070BD6FF0BF
:102FF0001000FAE7E41800202E03010088140020D6
:1030000000020020C12E00002DE9FF47DDE90C6918
:1030100005460F4690461C4626B133782F2B01D02B
:10302000FEF710FB1D4B2F60BFF35B8F53E800AF23
:103030000AF1010243E800210029F7D1BFF35B8FB9
:103040001FFA8AFA24B309F06FFBCDE9004AADF804
:103050000C00022303AA0121286807F0B1FD4246B3
:10306000044603463946284607F0C8FD5EB1B9F16B
:10307000000F08D02F23009332464B460B212846E1
:1030800007F03AFE044604EAE47004B0BDE8F087B5
:10309000CDE9004A234622462146DDE7D80200203A
:1030A0002DE9F04F85B090F8008000911C46002378
:1030B000CDE902338146C8F3011892460AB9FEF7FA
:1030C000C1FA9DF83C30012B00F2CA8001238DF833
:1030D0000830664B039301931CB9B8F1000F40F020
:1030E000B780634D2846FEF787FDAB682F4633B1A6
:1030F0002B6F8BB32846FEF7AFFD0025B2E09B4651
:10310000682505FB0BF57A190221916054630E992D
:10311000916305F11C0452463C440AF1180C1068F6
:103120005168264603C6083262453446F7D102ABE1
:10313000682693E803000BFB06623A4482E803002A
:1031400006FB0BF6B8F1000F09D0B8F1010F6DD0F6
:103150003E440024B46020E04FF0010BD0E73E4431
:1031600097F84421C6F81080002A59D141483061AF
:103170004FF4007249460BF065F93269009B7361A8
:10318000002A4DD00422F26040F6B8314FF4FA60C4
:1031900009F0EEFA01220446B2603548FEF75CFD04
:1031A000682202FB0B739B68002BA6D008352F44C6
:1031B00001238DF80830019B0393B7B107F1340563
:1031C000002C47D007F1500318462B4901933A468B
:1031D000FFF7DAFA2949019B0968294A2846FFF7CF
:1031E0003FFB21462846FFF745FB009A53464946D8
:1031F00002A8FFF751FE051E34DC67B1B8F1000FDD
:1032000002D1BB6883F800801CB107F13400FFF7DE
:1032100036FB00233B6015F1800F7FF46EAF21E099
:10322000682202FB0B7200249460B6E73E444FF024
:10323000FF32F260D9F80000D9F8041005F110024D
:103240003A4403C2D9F80800106041F28834A4E778
:103250002746ADE71C22214628460BF0F5F9C4E7C6
:103260006FF01505284605B0BDE8F08FF018002076
:103270000002002044030020292F0000400E01001E
:10328000E818002038B505680446287810F0300F9B
:1032900002BF20F0300040F020002870206843700A
:1032A00023681B7803F00F0304331944D21A636DAB
:1032B000A1600020E081A2816BB90A4B18684369C4
:1032C00001330AD00AF08FFCC0F357126265062161
:1032D000204607F041FD002038BD83685B689847B1
:1032E000F2E700BF440E010010B50B464FF4007228
:1032F00006490446FFF7C6FF014620B92046BDE84F
:10330000104007F038BD4FF0FF3010BD881200208C
:103310002DE9F043C906A9B0814636D50025DFF86E
:10332000948203952F4600230BAC0193009403AACB
:1033300002A9484606F02AF9061E26DB0FD07319AB
:10334000B3F5007F88BFC5F5007608EB050002994C
:10335000324688BF012735440BF074F8E3E79549FE
:10336000CDF828904FF001082A4611A88DF8248046
:10337000049607F025FB002807DB11994B785A09C2
:10338000022A08D004D8002A48D029B0BDE8F0832A
:10339000043A012AF9D804A80023224611A9FFF70C
:1033A000FBFC04980028F0D0119B1B7813F0300F21
:1033B000C3F3011200F02B81032AE6D04FF0FF3552
:1033C000836C13B13430FFF75AFA0498002F14BFFE
:1033D000062303230360C36A13B1224611A9984749
:1033E000049B5A68002AA2BF9B6800221A70049BA3
:1033F00000221A606B1CC8D0119A137823F0300396
:1034000043EA05131370119B00225A70119A137826
:1034100023F00F03137023460422F3E00A781211FD
:10342000A3B912F0030200F0F480022AADD14346A2
:10343000224611A904A8FFF7AFFC049B002BA4D0DF
:103440005A680132A1D002221A609EE792079CD4EA
:1034500037B18D2111A8FFF747FF002895D0CFE0A5
:10346000CDE905770797544F7E6802258EB17369C1
:1034700011AA08A930469847022801D13669F5E714
:10348000012802D136690546F0E700284CD1089E94
:103490000546012D4BD0022D4BD0002D42D1314697
:1034A00007A8FFF7A5FB269B002B40F0878011AAF9
:1034B000214606A8FFF718FC079B8046002B46D044
:1034C000069A002A37D0934203D006954FF0FF3377
:1034D0002693069B8BB1119F5E603A78DDE9090166
:1034E00002F00F0203F114051A6185E8030022B10E
:1034F000391D03F108000AF0A5FF9DF82430279339
:1035000008AA232111A807F01DFA0028D8BFF368E4
:10351000B5682849C8BF23464FF4007211A8A847D0
:1035200000289ADAA02195E700260320B0E785213C
:1035300090E784218EE79DF824101A7D914209D1ED
:103540001968204609F06CF908B1079B0693069BA1
:10355000002BBED1269B0133BBD0B8F1000FB5DBE9
:10356000079B002BB2D1214605A8FFF795FB059BD1
:1035700073B900280CDB1825A44605FB0075BCE8D0
:103580000F00DC3505950FC59CE8030085E80300B6
:10359000059A52B11C2000FB08F808F58673B84460
:1035A0003B440693C8F80C2193E7069B002B90D16F
:1035B0008CE700BF8812002000020020012B1AD1E6
:1035C00011AA214606A8FFF78FFB069B7BB11D6061
:1035D0002A46214606A80695FFF786FB069B33B9C7
:1035E000214605A8FFF758FB059B03B11D604FF06E
:1035F000FF33269381E701333FF47FAF4FF0FF3075
:1036000023460246044909A8FFF746FCBDE6022509
:10361000D6E60325F0E600BF88120020044B986828
:103620001B6F003818BF012003B10130704700BF85
:10363000000200202DE9F043282A85B006460F46F7
:1036400001D0FDF7FFFF184B01925C6800250123B4
:10365000ADF80C30A8461CB9284605B0BDE8F0838B
:10366000E3682BB1CDF80880029B6268934201D3D6
:103670002469F0E72068D4F80C9000EB031001AB4C
:103680007EB17A1B7119C8470028F1DDBDF80C30F6
:1036900023F00103ADF80C30029B01330544029383
:1036A000E2E732463146EEE70002002038B5044634
:1036B0004523FFF7E7FD28220C21204607F04CFBAD
:1036C0000121204607F057FB94F85830A1890546A0
:1036D0002822A068FFF7AEFF284438BD2DE9F0414D
:1036E000DDF81880154600220E461F46014608F1F7
:1036F0000803104600F0CBF8044650B1406876BA93
:103700006DBA8680C58027B14246394608300AF036
:1037100099FE2046BDE8F08173B506460C46002AA6
:103720003ED0072B3CD99188D088083B40BA49BA93
:10373000009389B202F1080382B28120FFF7CEFF25
:10374000054668B3237EFF2B04F1080214BF04F181
:103750001801002100F0FBFB044610B90146284681
:1037600009E000231A461946184603F0C5FA054633
:1037700030B90146204602B0BDE8704003F01ABDE2
:1037800043680EB1B6F9D6605E8006492C602B46C0
:1037900040F20222022002F068FA01460028DED040
:1037A00002B070BD0000FFFFF8B5048906460F4661
:1037B000154600200DB1AE4218D132897168002340
:1037C00006F02DFD04F13A030344B3F5803F24BF16
:1037D000013080B2396820443A3000232022083179
:1037E00080B206F01CFDC04380B2F8BD23462A8992
:1037F000696806F014FDAB682D681C44A4B2D9E7D3
:103800002DE9F0410D4680460321284603F0FEFED7
:10381000044608B9FDF716FF022103F0F7FE06463D
:103820000028F7D0A368032B05D828460021BDE85F
:10383000F04103F0BFBC011D2A4620466768FFF730
:10384000B3FF0028F1D13B78892B0ED8842B10D8F8
:10385000802B15D039782B4640F20122032002F04C
:1038600004FA0028E1D0BDE8F0816333DBB2012B1C
:10387000F0D8A36871683A46404601F0BFFBE9E71B
:10388000238971683A464046FFF746FFE2E738B5BC
:103890000D46144600211A46032303F0BDFD28B14E
:1038A000436800221D705C709A70DA7038BD10B5E4
:1038B000044668B190F91030032B0CD10268043132
:1038C000FFF772FF50B1626843BA5380002010BD09
:1038D0006FF00D00FBE76FF04C00F8E76FF00100B0
:1038E000F5E7002103F066BC08B5044910220AF090
:1038F00079FDB0FA80F0400908BD00BFEC0A010074
:103900002DE9F8430E46D1E9001405460A46002386
:103910002ABB5BBAA380A379FF2B02D119BB3B233F
:10392000A371E37913B94DBB4023E37104F1080798
:103930003E49102238460AF055FD04F11809804628
:1039400078BB4846FFF7D0FF0246D0B1102241466F
:1039500038460AF079FE0123E37534464FE090685B
:1039600012680344D4E70B7C023BDBB2022BD6D8AF
:103970002F4AD35CA371FF2BD3D1D0E795F8D43075
:10398000D3E74946284602F0FEFD0028E5D003466D
:1039900000F1100253F8041B47F8041B9342F9D1BD
:1039A000DBE7284602F0E6FB4846FFF79DFF98B1AB
:1039B0000024284602F0E5FB002CCED0032130463F
:1039C00003F024FE28B143681B7803F0FD03852B28
:1039D000C3D06FF07C0022E03946284602F0ACFDEF
:1039E0000028E5DB2844047D04F01F04103C18BFC8
:1039F0000124DEE703F02CFD98B12060044694F921
:103A00001030022B02D120680028F3D13146204625
:103A100003F0BEFB002807DA831C08BF0020BDE8C6
:103A2000F8836FF00B00FAE70020F8E70C0B0100B9
:103A3000E907010010B50C46FFF762FF002804DA21
:103A40002046FFF74EFF002010BD0120FCE70000DC
:103A500038B50B680C46054608B9FDF7F3FD6268FA
:103A6000B0F9D610518000224BB9B5F8A03093427E
:103A700009D220467A21BDE8384003F09BBB996803
:103A80001B680A44F0E7284602F04CFB60B10B4982
:103A9000234640F20222012002F0E7F868B92046EE
:103AA000BDE83840FFF71DBFB5F9D60040F202224D
:103AB000214602F0CFF80028F1DD38BD0000FFFFFD
:103AC000002370B504460D4642F0400619461A46DA
:103AD000184603F011F9014620B92046BDE87040B0
:103AE000FFF7FFBE43681E7104602846BDE87040C2
:103AF000FFF7AEBF80B5A0B01022002105A80AF0E4
:103B0000A3FDC14BC14F1B88ADF82030082110A880
:103B10000697FEF761F805A9022003F0F9FA40F2D2
:103B20000523ADF80E3040F2022840F2012401A82E
:103B3000FEF74EF8BDF80610B1F5017F29D84145D2
:103B400000F2BA81A14255D04145F0D1029E96F9CA
:103B50001030013340F013817468002C4CD0B4F95C
:103B6000020002F0FCFA0546304694F8049003F097
:103B70006FFC09F03F090146002858D003F06AFBAA
:103B8000064696F91030022B00F0FD8016213046D3
:103B900067E0A1F59F43403B9AB2122AC7D8122B87
:103BA000C5D801A252F823F0C93E0000C93E00006A
:103BB000C93E0000C93E00002F3B0000C93E000086
:103BC000C93E0000C93E0000C93E0000C93E0000D9
:103BD0002F3B0000C93E0000C93E0000C93E000066
:103BE000C93E0000C93E00002F3B0000C93E000056
:103BF000C93E0000029E0EB9FDF724FD4FF0FF31D3
:103C0000304603F003FD054638B14368002BF3D07E
:103C1000B3F9020002F0A3FA054673683BB1B2683B
:103C2000272A04D91B7803F0F003602B01D030461B
:103C30000DE0304603F00CFC04460028F7D00222C9
:103C4000282103F027FC0023237418B92046FFF72E
:103C500048FE6AE7D0F8049099F8073023B9742138
:103C6000204603F0A7FA60E7B9F8041099F8066057
:103C700049BA89B209B93B2EE8D18442A36864D01D
:103C80008B42204661D903F071FC09F1180A5046B5
:103C9000FFF72AFED0B95E49082250460AF0A2FB7F
:103CA00048B199F81830FF2B07D199F8193003F073
:103CB0000F03022B01D1002D56D1504602F050FDCA
:103CC0000546B0FA80F35B09002BBFD1292E4FD0F7
:103CD0003A2E4FD0112E0CBF0423002323743146FB
:103CE000022003F042FA002801DC3A2E44D10121DF
:103CF000204603F013FB4FF0010994F9100023460E
:103D000040F20122394601F0B0FF10B92046FFF71A
:103D1000E8FDB9F1000F10D03A2E03D10121204661
:103D200003F0FCFA234640F201223146022001F062
:103D30009CFF10B92046FFF7D4FD3A2E7FF4F5AE74
:103D400021462846FFF75CFDEFE6002283681A440F
:103D500090F91030022B02D000680028F6D1283AE2
:103D60008A4292D216217BE7504602F0F9FCA8E77E
:103D70000223B3E70323B1E74FF00009BDE74FF09B
:103D800000094D46FDE670682249102218300AF0FD
:103D900029FB00283FF4FAAE304603F059FB0446F5
:103DA00000283FF444AF4668337EFF2B34D1002D0A
:103DB00040F08E8002F0C6F900283FF447AF411E64
:103DC000204603F0ABFA04E04A4629463046FFF7A6
:103DD00077FE284602F0B4F9054600283FF4A5AE68
:103DE000204603F035FB064600283FF42FAF01467E
:103DF0002846FFF785FD0028E6DAB4423FF426AFF7
:103E00003046FFF76EFD21E7901100200000FFFF14
:103E1000DC0A01000C0B01001836304602F0A0FC51
:103E200082463046FFF760FD10B9BAF1000F17D097
:103E300021465046FFF7FEFD00283FF407AF20461D
:103E400003F0E4F900287FF401AF234640F2012299
:103E50003946022001F009FF00287FF466AEF5E63E
:103E600009AB22462946304600F0E0FF0028FFF665
:103E70005CAEBDF83C00C0F3041002F070F90546DA
:103E800000283FF4B9AE2146FFF7D4FD00283FF4E7
:103E90004CAE51469DF83E300DAA504602F02CFF24
:103EA000014600283FF4D2AE436883F804900460D2
:103EB0002846FFF7CDFD38E66FF0850303A901A87A
:103EC0000493FDF75FFE30E6029801F059FB2CE603
:103ED00001462846FFF7AEFD00283FF426AE4A46CD
:103EE00029462046FFF7ECFD1FE600BF1FB50A4C30
:103EF000B4F9003063B9094A0948CDE90132094BE8
:103F00000093042208234FF48061FEF763F82080B9
:103F1000B4F9000004B010BDB81D0020E407010092
:103F2000B8190020F53A000008B5022103F06EFB35
:103F300060B143680BB9FDF785FB8268272AFAD97F
:103F40001A7802F0F002602AF5D1184608BDF8B5DB
:103F50000C46174602232822002103F05DFA06468C
:103F600000B3456805F10800F4B12146034604F1A9
:103F7000100251F8040B43F8040B9142F9D105F1FA
:103F80001800B7B13A46034607F1100152F8040B86
:103F900043F8040B8A42F9D160232B60FF23AB71F5
:103FA0000023EB713046F8BD102221460AF04CFB8D
:103FB000E5E7102239460AF047FB012385F8273050
:103FC000EAE70000F8B5044615460E4609B9002098
:103FD000F8BDD1F8A470FA04F9D5194908220AF0FD
:103FE00001FA38B12378FF2BF1D1637803F00F0386
:103FF000022BECD1FB0704F1080105F1100201D4FA
:10400000FDF720FB96F8D50006F03EFB10F0FF0010
:10401000DDD0A8762B4604F1100254F8041B43F8B7
:10402000041B9442F9D1B6F9D6301B0103F4F8739E
:1040300043F4806343F006032B830120C8E700BFED
:10404000DC0A01002DE9F341054602F089FB044634
:1040500002F090F8B4F9D610002000F089FB064673
:10406000002847D0002C47D00368B4F9D6109A8EA8
:10407000C2F30412914201D0FDF7E4FA04332A4658
:104080002146184600F006F92946204602F054FA67
:10409000051E31DB002E38D061190B7D03F01F02A5
:1040A000102A2FD003F00702013A012A2DD801333C
:1040B000D4F898600B75691C0901174B1748B3F9C0
:1040C00000808F1D683121440191FEF75BFC04EBF9
:1040D00005100023C0E91E36274444F6CF73A0F82C
:1040E0008230C0F88470A0F8808001990B48FEF7F8
:1040F00011FC01E0002CC7D1204602B0BDE8F04120
:1041000002F03FB84EF66026D5E7002384F89C30D5
:10411000204601F0EFF9EFE7B81D0020541F002002
:104120002DE9F0430D4685B01E46044608B9FDF75B
:1041300089FAD0F8A430D90403D4042005B0BDE82E
:10414000F08371780229F8D11278882AF5D1DB073B
:10415000F3D590F8B02002AB00F1A80101F0E2FD28
:104160000828EAD1DDE90223F168B0688B4208BF74
:104170008242E2D1B378012B45D0022B49D0002BEB
:104180003FD105F118012046F78802F0D5F9051E48
:10419000D3DB7FBABBB2012B04EB05021CBF4EF68A
:1041A00060275F43137D2A4823F01F0305F10101B7
:1041B00043F010034FEA0111137501F10608254B76
:1041C00001F16801214418BFA7F56A47B3F90090CF
:1041D000019114BF603F47F23057A044FEF7D2FB75
:1041E00004EB05140023C4E91E3744F6CF7301998C
:1041F0001748A4F88230C4F88480A4F88090FEF7B1
:1042000089FBB0789AE705F11801204602F074FBAB
:10421000F7E7B4F9D61005F1080000F0A9FA07464F
:10422000002884D000F074FA002000F08BFA28B93E
:1042300084F89C00204601F05DF9E2E73B68002B22
:104240003FF475AF05F11800FFF7FCFED9E700BF9A
:10425000541F0020B81D002013B58A784878402AE2
:104260008CBF03230223984211D1CC88C87864BA4A
:10427000C0F30013A4B200930831234600F00F00EE
:1042800003F048FA4EF66020604302B010BD4FF0D4
:10429000FF30FAE7F0B5074685B015461E460C46D6
:1042A00009B9FDF7CFF9B1F9D610002000F060FA96
:1042B0003DB3D4F8A430DA0423D50068B4F9D6208D
:1042C000838EC3F304139A421BD13146043006F0A7
:1042D00071F8B0B1D4F8A430DB0710D594F8B02051
:1042E00002AB04F1A801204601F01CFD082806D10C
:1042F000002302AA0F21184604F08EFF10B905B062
:10430000F0BD0020009033462A462146384601F091
:1043100073FBF4E72DE9F0410E4617469846054633
:1043200008B9FDF78FF90836B0F9D610304600F01D
:10433000B9F8044628B190F8363013F0010F08BFE1
:104340000024D5F8A430DA07EBD595F8D50041461E
:1043500006F0B0F900281ADB74B9B5F9D6100322BB
:10436000304600F0EFF8044688B13B78872B03D144
:10437000838E23F00803838694F83630DB0706D556
:104380003B78862B05D1A38E43F00803A386BDE8B6
:10439000F081872BFBD0A38E23F00803F6E730F9DA
:1043A000081FFDF7B9BB000038B5054668B10C1D04
:1043B0001022074920460AF015F830B12146284658
:1043C00005F0F8FF00F0010038BD0120FAE700BF5A
:1043D0000C0B010008B590F8361021B938220AF00C
:1043E00033F9012008BD0020FCE770B504461046F3
:1043F0000E461546FFF7EEFF4CB120462B1D04F18B
:10440000100250F8041B43F8041B9042F9D11F2EF0
:1044100001D9FDF717F9AB8E23F4F87343EA0611BF
:10442000A98670BD064A13683BB11868834219BF5C
:1044300002681A600023136070471846704700BF77
:10444000501F002001490248FEF7BCBA9F430000FC
:10445000541F00200148FDF781B900BF701F0020E4
:104460000148FDF77FB900BF701F002070B50C4CEC
:10447000A38EC3F30413994206460D4604D094F864
:10448000363033B1002070BD2146FFF78DFF002884
:10449000F5D03046024A2946FFF7A7FF0048F2E769
:1044A000781F002008B518B9FDF7CCF80B4813E0C9
:1044B0000A4B93F8362072B19B8E13F4F87FC3F346
:1044C000041202D009B1914205D10146044805F019
:1044D00071FF0028EAD1002008BD00BF781F00202E
:1044E0007C1F002010B590F8363023F0010300F156
:1044F000240180F8363004461048FEF743FA104A8B
:10450000116821B10B689C4206D1FFF78BFF204652
:10451000BDE81040FFF75EBF0B461B681868844279
:1045200002D09942F9D1F2E7002BF0D0216819604E
:1045300011688C4208BF1360E9E700BF541F0020D8
:10454000501F00202DE9F84F8846074608B9FDF7AF
:1045500079F802F007052B1F022BF8D9FFF786FF29
:10456000044600284CD1FFF75DFF0646002862D0C4
:10457000DFF8C8A08346D1469BF8364034F00104EA
:104580002DD1BBF8343003F4C06383B95846FFF72C
:10459000A9FF5A4641463846FFF727FFBBF834309B
:1045A0002B43ABF8343001238BF836305C46DAF815
:1045B0000030B3B11B68CBF80030DAF80030C3F834
:1045C00000B0C9F800B0C4B9FFF72CFF864283469B
:1045D000D2D1D9F800303BB9CBF800B00BE00024C1
:1045E000E5E7CBF800B0ECE71B68CBF80030D9F872
:1045F0000030C3F800B0C9F800B02046BDE8F88F1D
:1046000090F83630DA0708D4828E22F007022A4367
:1046100043F00103828680F836302368002BECD10A
:10462000064B1A682AB1126822601A6814601C606E
:10463000E3E72460FBE70446DFE700BF501F0020EC
:1046400070B50C46054600B109B9FCF7FBFF0A46F8
:10465000031D00F1140153F8040B42F8040B8B42C4
:10466000F9D1A88E2083C0F3041001F078FD104921
:1046700006460822204609F0B5FE38B12378FF2B04
:10468000E3D1637803F00F03022BDED1002EDCD0E0
:10469000D6F8A430DB0705F10C0104F11002D4D5E3
:1046A00096F8D50005F0F0FF0028A8BFA07670BDF1
:1046B000DC0A0100F8B5154C256807460E469DB189
:1046C000AB8EC3F30413994201D00020F8BD291D1D
:1046D00005F070FE0028F8D095F8363043F0080356
:1046E00085F836302046F1E7FFF7C0FE024620602D
:1046F0000028EAD031463846FFF777FE226892F864
:10470000363043F0080382F83630EBE7BC1D00205A
:1047100010B50446006860B190F8363023F0080305
:1047200080F83630FFF756FE14220021204609F0AB
:104730008BFF034B1A68A24204BF00221A6010BD0F
:10474000B01F002028B11430074A904203D3002044
:1047500070470648F8E703681BB193F83630002B22
:10476000F6D11430F1E700BFD01D0020BC1D0020A1
:1047700010B520B10D4B1C682CB900200FE00029AA
:10478000F8D1FCF75FFF21B1A38EC3F30413994264
:10479000F3D128B994F836301B07F2D5034810BD81
:1047A000211D05F007FE0028E7D0F3E7BC1D00201F
:1047B00010B5124C2168B1B10B689B8E03F0070352
:1047C000013B012B0DD80020FFF7BCFF68B908465C
:1047D000FFF7B8FF01B110B90020FFF7B3FF206069
:1047E0000146084610BD0846EEE703689B8E03F0BD
:1047F0000703013B012BF2D8E6E700BFB01F002002
:1048000038B50C46054610B1036803B109B9FCF789
:1048100019FF10220021204609F016FF114A1268E4
:104820000023AA4284F8203008D12B689B8E03F025
:104830000703013B012B94BF0023012384F821309F
:104840002B6804F110011A1D143352F8040B41F8BF
:10485000040B9A42F9D12B689B8EC3F30413638433
:1048600038BD00BFB01F00202DE9F84F05468A462D
:104870001F46914642B13B491022484609F0B2FD1D
:1048800010B17B1E7F2B01D9FCF7DCFE0024364ED5
:10489000A34696F82520D6F8008097422DD1B8F18E
:1048A000000F5BD0B8F83420C2F30412924529D12E
:1048B00041462846FFF778FD20B34946301D05F0F4
:1048C0008EFD87421ED84DB108F1040805F1100293
:1048D00055F8041B48F8041B9542F9D1302202FB1D
:1048E0000BF3214AD25892F8363043F0400382F855
:1048F000363034462046BDE8F88F1CB9B8F1000FB9
:1049000008BF34460BF1010BBBF1080F06F130066E
:10491000BFD1002CEED051462846FFF7A7FD064632
:10492000206028B901463022204609F08DFEE0E7DC
:10493000024651462846FFF758FD2046FFB250F880
:10494000042B92F8363043F0400382F83630494663
:104950003A4605F068FD84F82570CBE7002C08BFC7
:104960003446CFE70C0B0100D01D002010B50446E3
:104970000068C8B10D4B08229C4202D019688842D9
:104980000BD0013A03F13003F6D190F8363023F022
:10499000400380F83630FFF71DFD20463022BDE889
:1049A0001040002109F050BE10BD00BFD01D0020F6
:1049B00028B13030064B984203D300207047054899
:1049C000F8E790F82420002AF8D13030F3E700BF50
:1049D000501F0020D01D002038B5034610B10268DA
:1049E00002B109B9FCF72EFE021D03F114040846BA
:1049F00052F8045B40F8045BA242F9D193F82520F9
:104A000081F82020002481F821401A68908EC0F39C
:104A10000410488493F82430042B01F1100005D1D0
:104A200021461022BDE8384009F00EBE131D014694
:104A3000143253F8040B41F8040B9342F9D138BDFA
:104A40002DE9F8431646074600B10AB9FCF7FAFD0E
:104A5000184D0024A04605F5C07995F824305BB1C7
:104A60003946281D05F0BBFC404505D995F8253091
:104A700083429CBF80462C4630354D45EDD134B144
:104A800094F82430042B0FD1E38CDB070CD4FFF710
:104A90008FFE18B944B96FF0710003E03146FFF79B
:104AA000AFFE0020BDE8F88331462046FFF794FFB3
:104AB000F7E700BFD01D002090F8242022F0040268
:104AC00080F82420FFF752BF2DE9F341044600F19E
:104AD00014011748FDF756FF2368988EC0F30410A1
:104AE00001F03DFB0546E0B100F11606211D304600
:104AF00094F82580019105F072FC05F126078045A8
:104B0000019998BF94F82580384688BF002605F0A3
:104B100066FC804501D926B137463946284601F062
:104B2000EBFE204602B0BDE8F041FFF7C5BF00BF75
:104B3000541F00202DE9F3411F4613460A46014643
:104B40000020089EFFF790FE054600283ED090F812
:104B50002430B74243F0040380F8243001D2FCF73C
:104B600071FD07EA0604601C38D01E4B18684369C3
:104B700001332FD009F037F8711C04461DD01A4BB1
:104B80001A48B3F9008005F114010191FDF7FAFE0E
:104B90000023C5E9053644F6CC7301991348EB832D
:104BA0002D62A5F81C80FDF7B5FEB21C05D03319A7
:104BB000013301D104B101362644FB1C10D83B1946
:104BC000013308BF01373C44C5E90A46284602B014
:104BD000BDE8F08183685B689847CDE72646F3E738
:104BE0003C46F1E7400E0100B81D0020541F002094
:104BF00010B50A4B9B690246002013B94FF0FF30F5
:104C000010BD5C6820445C898C4204D1002AF7D036
:104C1000DC689442F4D01B68EFE700BF541F00200B
:104C20002DE9F0411F460B4B144605460E460A4837
:104C3000B3F900801146FDF7A5FE0023C4E9003753
:104C40006681E560A4F8088021460348BDE8F0418C
:104C5000FDF760BEB81D0020541F002010B50A49A2
:104C60000822044609F0BEFB48B12378FF2B08D187
:104C7000607800F00F00831E5842584110BD01209B
:104C8000FCE70020FAE700BFDC0A010008B5FFF7E7
:104C900009FC28B190F8363013F0010F08BF00204E
:104CA00008BDF0B5036885B00446ABB193F8362073
:104CB000120711D59E8E04330FCB6D4685E80F0089
:104CC0002046FFF725FD0024C6F30416274620469C
:104CD000FFF76EFE044608B905B0F0BD2068002855
:104CE000F5D0838EC3F304139E42F0D129460430DD
:104CF00005F060FB0028EAD0226884F8247092F85E
:104D0000363023F0400382F836302046FFF72EFE7F
:104D1000DDE72DE9F041069F044690460D46B1B10E
:104D200091F8D5200A2A12D11A4600F1100154F840
:104D3000040B42F8040B8C42F9D1B5F8D6201201CD
:104D40001A8300229A7601263046BDE8F08127B109
:104D500019463846FFF774FCF5E71A4629462046FF
:104D6000FFF730F906460028EED15DB1B5F9D6104F
:104D700002222046FFF7E6FB014628B9404602F032
:104D800019FAE1E73946F3E7B8F1000FDCD07621F4
:104D9000F4E7000038B5084DFFF75CFBA96929B1BD
:104DA0000C682846FDF7EEFD2146F8E7FFF74AFBC1
:104DB000BDE83840FFF754BB541F002070B50446CF
:104DC00008B9FCF73FFC01F0D5F994F89E304FF498
:104DD0007A7643F0010384F89E3020460025C4F81B
:104DE000986000F0BEFF0F49A4F89C50204601F0E7
:104DF000CEFCA84204DA2046BDE8704001F0C1B9FB
:104E000040222046084900F0F1FC3146284607F0D0
:104E1000AFFC04F16802034644F6C3712046FFF775
:104E2000FFFEE8E7BC0A0100DC0A01002DE9F047BB
:104E30000C468CB0054608461746994601F09AF98B
:104E4000FFF708FB94B3B4F9D6102846FFF71EFF0E
:104E50000646002800F0C880B0F83480C8F3041873
:104E60002846FFF7FBFE002861D1B8F1000F5ED0A5
:104E7000204601F086F9404601F071F90446FFF73B
:104E8000EFFA204601F076F9FFF7E4FA002C3AD168
:104E9000002F4FD13C466FF07506FFF7E1FA204630
:104EA00001F06FF930460CB0BDE8F0872146CCE741
:104EB00008F10401284605F092FA98F82530984246
:104EC00007D3BAF1000F1AD09AF825209A4238BFBA
:104ED000C2464046FFF76CFD80460028E8D1BAF193
:104EE000000F2FD09AF824305A072BD5BAF8263065
:104EF000DB0727D5DAF80030B3F83480AEE7C246D6
:104F0000E7E7B046ACE7B4F9D6102846FFF7BEFE97
:104F1000064600964B463A4621462846FFF7F9FEDC
:104F2000002818BF002608BF6FF07506B5E7002CF3
:104F3000EFD1ADE77621384602F03CF96FF0750607
:104F40000024AAE703AA39462846FFF779FD061E82
:104F500030DB2949102207A809F044FA78B94EBB82
:104F60002846FFF77BFE28B307AA05F1100C286836
:104F70006968134603C3083565451A46F7D10CBB6B
:104F8000BDF92E0001F0EBF80446FFF769FA204660
:104F900001F0F0F8FFF75EFA1CBB214607A8FFF707
:104FA00075FE4B4600903A46214607A8FFF7B1FE32
:104FB0000028B8E71FB17221384602F0FBF86FF005
:104FC00071066AE7B4F9D620BDF82E309A4208D0AF
:104FD000204601F0D6F8B4F9D620BDF82E309A421A
:104FE000CED1B4F9D610D9E72846FFF737FE00280E
:104FF00087D1B246B0466CE70C0B01002DE9F04FAB
:105000008A4687B015461E46044608B9FCF71AFBC7
:1050100001F0B0F8FFF71EFA2B78872B00F05081D3
:10502000882B00F0F881862B40F0A8810AF108084F
:105030004046FFF713FE002800F0A0819AF80730E1
:10504000FF2B40F09B816B78002B40F097810F2E57
:1050500040F29481D4F8A430D90407D4EB885BBA29
:105060009BB242F22832934200F28881A6F1100BE3
:1050700005F110073B46D946B9F1000F55D1EE882E
:10508000B4F9D610B3B24046002B5AD0FFF712FB4A
:105090008046002800F0728176BA4FF47A73B6B277
:1050A0005E433346021D44F6CD71FFF7B9FD2B79FF
:1050B0000BB184F8D430EB6813B11BBAC4F8983044
:1050C000B8F1000F13D0D4F8A430DA040FD5237D43
:1050D00013F0EF0F03D004F11600FEF7B3FF637D6A
:1050E00013F0EF0F03D004F12600FEF7ABFFBBF186
:1050F000000F33D1B8F1000F00F0408104F16802D5
:105100001146AB480292FDF73DFCD4F8A430029A58
:1051100013F4805F00F03281B30803EB430344F6DD
:10512000C3712046FFF77CFD28E14E45C0F0268183
:105130005A78002A00F02281A9EBC20903EBC203CE
:105140009AE7FFF715FB804628B1FFF7AAFD4FF05D
:10515000FF36C846ABE74FF0FF36A8E73B78052B94
:105160001BD009D8012B11D0032B24D07B78ABEBBB
:10517000C30B07EBC307BAE7222BF7D13946284602
:10518000FFF76AF8864228BF0646EFE73B462A4605
:1051900051462046FFF7BEF8E8E77B78012BE5D1C2
:1051A0002B78862BE2D17B681BBAB3F5A06FDDD3D9
:1051B000A4F8A030DAE77B78042B05D04FF0FF335A
:1051C0009E4228BF1E46D1E72B78862BF6D107F1E9
:1051D000100108460291FFF741FD0028EED17B68DF
:1051E000D7F808901BBA99FA89F94B45E6D3FA78B3
:1051F000029912F0400F06D0BA780393204600F0CF
:10520000F5FADDE9021397F90320002AD6DABA7815
:105210000292786800BB814615E099F824305B075C
:1052200011D599F82530029A93420CD109F1040066
:10523000039105F0D4F8029B0399834203D84846B2
:10524000FFF742FC039903914846FFF7B1FB03992E
:1052500081460028E1D1B1E7581C07D0554A934256
:105260009ABF4FF47A7253436FF00103B9F1FF3FD5
:1052700008D0504A91459ABF4FF47A7202FB09F95F
:105280006FF00109CDF80090029AB4F9D6000393AB
:10529000FFF750FC002891D097F90320F978039B81
:1052A000002ABEBFC28C42F00102C2844A0642BF3D
:1052B000C28C42F00202C2844B4528BF4B467FE7B6
:1052C0009AF80730FF2B59D16B78002B56D1172E47
:1052D00054D92B7AFF2B51D00AF1080836491022F5
:1052E000404609F07FF838B934490D220AF1180018
:1052F00009F078F8002841D105F1080B59462046FD
:1053000001F01AF9031E029338DBA6F1180705F124
:1053100018094A463B4673B9274903931022404671
:1053200009F060F8039B78B900934246214658463D
:1053300000F0BEFB22E09E4220D35178F1B1A3EBF6
:10534000C10302EBC102E6E7D4F8A430D80705D4C4
:10535000B4F9D61003224046FFF7F4F8B7B9029B20
:1053600023441B7D99064ED5B4F9D6105846FFF755
:105370008DFC064620BB394601F01CFFFFF770F894
:10538000204600F0FEFE07B0BDE8F08F99F800302F
:10539000012B05D14B462A4651462046FEF7BAFF5F
:1053A00099F80130A7EBC30709EBC309D6E700BFA3
:1053B000541F0020378941000C0B0100FC0A01003A
:1053C0009AF81830FF2B1BD194F8B05004F1A801C3
:1053D0002A4604A809F036F895B129463A4604A8A9
:1053E00000F000FB05460028C5D040212A4658465B
:1053F00000F096FA0746002872D101462846BBE71E
:1054000060213D46F2E79AF818300097A3F1FF02B9
:105410005342534189E79AF80730FF2BAED16B789E
:10542000002BABD1172EA9D92B7AFF2BA6D09AF837
:105430001830FF2B02D12B795B069FD4A6F11808F8
:1054400005F118073A464346E3B9B4F9D61005F119
:105450000800FFF71BFC064600288FD0B8F1000FAC
:105460008CD03B78212B07D1CDE900763B462A46EC
:1054700051462046FEF754FE7B78A8EBC30807EBA5
:10548000C307EBE79E42FFF479AF517800293FF460
:1054900075AFA3EBC10302EBC102D5E76B68B4F9AA
:1054A000D6205A804FF47A71C5F80080002007F0AA
:1054B0005FF906F12402034644F6C271284631E63C
:1054C000D8F80430FF22DA7100231A46194618462C
:1054D00001F012FC05460028E0D1294640464BE782
:1054E00042460021FEF733FD80460028E8D14146C0
:1054F000384641E738B5044600F03CFE44F6C37137
:105500002046FFF775FBD4F8A430DA0432D594F8BE
:105510009C30022B42F210750AD9033B4FF47A6299
:1055200002FA03F31D444EF660239D4228BF1D4638
:10553000A8421AD91149204600F03EFB94F89C304D
:10554000092B9CBF013384F89C3094F89C30022BCB
:1055500003D9D4F8A430DB0407D52B4604F1680244
:1055600044F6C3712046FFF75BFB2046BDE8384098
:1055700000F007BE4FF47A65DAE700BFCC0A0100FD
:1055800073B50D460446FEF765FFA5F59F41423908
:105590000D2914D8DFE801F00718131313131313A0
:1055A00013131C68136C3449234640F20222022074
:1055B00000F05BFB18B90921204601F0FBFD02B0A9
:1055C000BDE87040FEF74CBF2046FFF793FFF6E7BB
:1055D0002368988EC0F3041000F0C1FD274B0546E8
:1055E0001868436901330FD008F0FDFA06462846D3
:1055F00000F0C0FDA36AB3420AD82046FFF764FA60
:10560000284600F0BEFDDAE783685B689847EDE75F
:10561000E36AB342F4D8211D05F11600019104F0AC
:10562000DEFE94F82530019983429FBF2B7D23F045
:105630001F0343F008032B7505F1260004F0CFFE8D
:1056400094F8253083429FBF6B7D23F01F0343F006
:1056500008036B75A36A04F114029B1B44F6CC711A
:105660002046FFF7DDFACBE72046FFF71AFBA6E757
:105670002046FEF7E7FCA2E70000FFFF400E010016
:105680002DE9F04387B00D4604461746002110224D
:1056900002A8DDF838901E4608F0D6FF0DB9FBF7DA
:1056A000D1FF802FB84628BF4FF080085FFA88F2FC
:1056B000294602A804F0B7FE2B49102202A808F0E0
:1056C00091FE00284DD029490822284608F08AFE7C
:1056D000002846D02B78FF2B43D0B14541D8FEF7A8
:1056E000B9FE3346CDF80090424629462046FFF7E2
:1056F00021FA064630B9FEF7B3FE6FF00B0007B093
:10570000BDE8F08320B200F02AFD044618B9FEF788
:10571000A7FE0020F3E700F02DFDD4F8A430DA0452
:1057200011D42946204600F01BFF00280BDB04EBB8
:1057300000102946163004F052FE404522BFF38C7B
:1057400043F00103F38494F89E30DB0705D57F2FE7
:105750009EBFF38C43F00203F384204600F011FD5A
:10576000D5E76FF01500CAE70C0B0100DC0A010059
:105770002DE9F0410C6807460E461546FEF76AFE15
:105780002046FFF715F9044600B3D4F80080B8F1BD
:10579000000FF5D094F824305B07F1D5F7B994F8F1
:1057A00025302B7410220021284608F04DFF94F874
:1057B0002520211D284604F036FEB8F83430C3F306
:1057C00004136B82A36A6B61E36AAB61FEF748FE68
:1057D000201E346018BF0120BDE8F081B8F83430D5
:1057E000C3F304139F42CBD1D9E70000F0B50446C0
:1057F00085B00E46174600211022684608F024FFA7
:10580000D4F8A430D90406D4B4F9D610224809F04B
:105810003DF805B0F0BDDA07FBD502AB94F8B02037
:1058200004F1A801204600F0FCFA3A4631466846E9
:1058300004F0F9FD6946204600F07EFE051E29DAD7
:1058400007233A466946204600F0DAFD051EE0DBF4
:105850000127D4F8A430DB04DBD5104908223046F8
:1058600008F0C0FD38B13378FF2B0BD1737803F00B
:105870000F03022B06D16219137D23F01F0343F09F
:1058800010031375002FC4D004EB05101630FEF77B
:10589000D9FBBEE70027DCE7EC070100DC0A0100CA
:1058A00070B504461846FEF752FB0646B8B1436889
:1058B000FF22DA7100231A461946184601F01CFA35
:1058C000054628B93146304601F0C4FC284670BD73
:1058D00043680CB1B4F9D6405C802E60F6E705460B
:1058E000F4E738B50D46044610B10378FF2B01D11B
:1058F000FBF7A8FE1823002287212846FDF7C7FFE3
:1059000068B1436800221A715A719A71DA7121687C
:105910006268DA609960A168E2685A61196138BD0D
:1059200070B50D461646044610B10378FF2B01D121
:10593000FBF788FE1823002288213046FDF7A7FFD9
:1059400078B14368002225F01F051D71DA719A7144
:105950005A7121686268DA609960A168E2685A61E8
:10596000196170BD08B5002208238521FDF78FFF5E
:1059700028B1436800221A715A719A71DA7108BD10
:105980000731002310B50446104601F0F80219460D
:1059900001F042FD20B1426814708368DB08537047
:1059A00010BD70B506460D4618460231FFF7E8FFF8
:1059B000044658B1436882680233023A002118460F
:1059C00008F042FE2A46314608F03CFD204670BDF4
:1059D00010B500B109B9FBF735FEBDE81040012351
:1059E000FFF7DFBF10B500B109B9FBF72BFEBDE82B
:1059F00010400223FFF7D5BF2DE9F7430A9D0C465F
:105A000016469846074610B10378FF2B01D1FBF7E5
:105A100019FE0029FBD0B8F1000FF8D0084600F0BD
:105A2000A9FB36B932463946204600F0ACFD0646A1
:105A3000B8B11D491022304608F0D4FC88B194F862
:105A4000B09004F1A8014A46684608F0FBFCB9F1A1
:105A5000000F06D02A4649466846FFF7B9FFE8B16D
:105A6000054638462946FFF73CFF0746B0B10346D6
:105A7000424631462046FFF713FF054668B103460C
:105A80000A4940F20222022000F0EFF830B120462D
:105A900000F077FB03B0BDE8F0833D4600212846C7
:105AA00001F088FBF3E700BF0C0B01000000FFFFD3
:105AB0002DE9F04387B00D460E9E144699460746E1
:105AC00010B10378FF2B01D1FBF7BCFD0029FBD0FF
:105AD000002AF9D0084600F04DFB3946284600F070
:105AE0002BFDB0F100085CDB30491022204608F0A5
:105AF00079FC30BB2E4B02AC03F1100C18685968CE
:105B0000224603C2083363451446F7D1002495F8B2
:105B1000B09005F1A8014A46684608F093FCB9F137
:105B2000000F3BD0324649466846FFF75BFFC0B3E3
:105B3000A84498F814309B0601D444F0200406468B
:105B40000FE0224602AB04F1100C106851681C46AD
:105B500003C4083262452346F7D14024B9F1000F4F
:105B6000D5D1214632463846FFF7DAFE0446C0B1A9
:105B7000034602AA00212846FFF792FE064678B1A6
:105B800003460C4940F20222022000F06EF840B1B8
:105B9000284600F0F6FA07B0BDE8F0833046CEE7BD
:105BA00026460021304601F005FBF1E70C0B010011
:105BB000BC0A01000000FFFF2DE9F3410E46054637
:105BC00008B9FBF73FFD214B002908BF1E4600F036
:105BD000D1FA00223146284600F0D5FC8046A0B11B
:105BE00095F8B04005F1A8012246684608F02AFC65
:105BF00064B1214600226846FFF7EAFE044628B950
:105C00000021204601F0D6FA17E004462046FFF7AF
:105C1000A9FE07460028F3D00346324641462846EF
:105C2000FFF73EFE044670B10346094940F20222E6
:105C3000022000F01AF80028E2D0284600F0A1FA6D
:105C400002B0BDE8F0813C46DAE700BFCC0A0100B3
:105C50000000FFFF07B5019101466846ADF802203C
:105C6000FBF774FF03B05DF804FB2DE9F341044634
:105C7000884617461D4601F078FA064648B1414667
:105C8000204601F06DFA711E0446284601F046FBDD
:105C90001CB9304602B0BDE8F081237A012B0FD049
:105CA000022B16D003BBB4F90C003A462946FFF785
:105CB000D1FF002813DC0521284601F07BFA0EE015
:105CC000E068ADF80270002269460195FBF76CFDB3
:105CD000EFE7E3682946D3E900823846C04720460B
:105CE00001F050FA0446D3E78C21E5E713B590F8AC
:105CF000D530043B012B13D8806803680DF10602F0
:105D00005C6905210223A047022801D0FBF79AFC19
:105D1000BDF80630082B14BF0220032002B010BDCE
:105D20000220FBE730B414461A46D0F8A430DB0753
:105D300013D590F8D550042D09D1022C07D18068D5
:105D400003685C690321A446082330BC60471346FE
:105D50002846224630BC04F03BBC6FF0850030BCC6
:105D600070471FB590F8D530052B044616D0082B88
:105D700014D0042B18D10823ADF80230002301936E
:105D8000039305238DF804300DF1020302930223DF
:105D9000ADF80C30436801A91B699847D4F8A430CA
:105DA00043F48053C4F8A43004B010BD37B50446A2
:105DB000806803685D6994F8D530043B072B22D8CE
:105DC000DFE803F0042104210404210AD4F8A430FC
:105DD00043F48073C4F8A43002230DF106021121AC
:105DE000A847022801D0FBF72DFC4FF4A063A4F8CC
:105DF000A030BDF80630B3F5A06F28BF0023A4F88B
:105E0000B23003B030BD02230DF106021121A847C4
:105E10000028ACBFBDF806304FF6FF73A4F8A030E1
:105E2000EFE710B4D0F8A440E40705D590F8D5000A
:105E30005DF8044B04F0E2BB6FF085005DF8044BA5
:105E400070471FB500240394ADF80C3043680194EB
:105E50001B698DF80410029201A9984704B010BD87
:105E600008B50449102208F0BDFAB0FA80F04009E4
:105E700008BD00BF0C0B010010B50A4908220446FA
:105E800008F0B0FA48B12378FF2B08D1607800F011
:105E90000F00831E5842584110BD0120FCE700202E
:105EA000FAE700BFDC0A010070B585680446FFF719
:105EB0001DFF2B6801465E6904F1A80208232846ED
:105EC000B04710F1860F08D0D4F8A430002843F072
:105ED0000103C4F8A43006DC70BD94F8B030002B88
:105EE000FAD0FBF7AFFB84F8B000F5E7F8B504464D
:105EF00008460E461546FFF7B3FF98B95DB104F1A9
:105F0000360503270024314605EB041004F052FA4D
:105F100028B12046F8BD04F116050227F2E7013446
:105F2000A742F0D14FF0FF30F4E7000070B504460F
:105F30000D46164682B908B9FBF784FBD0F8B83095
:105F400053B101F073F820B92046BDE8704000F06D
:105F50002BB8144808F04EFD0121284601F0DEF967
:105F6000636829465B6820469847103016D1294659
:105F7000204666B101F09CF806468EB1094808F04B
:105F800039FD0C212846BDE8704001F013B901F03D
:105F90004DF80646204601F06DF8EEE70021F1E7E6
:105FA00070BD00BF6B08010010B5044608B9FBF7CF
:105FB00049FBD0F8B8307BB11A685968C0F8B820EE
:105FC00000221A605A6039B10122FFF7AFFF204664
:105FD000BDE8104001F04EB810BDF8B5067D05468D
:105FE0000F469EB1163004F0FAF9B0FA80F4640955
:105FF000064664426B7D3BB1394605F1260004F04C
:10600000EEF9864238BF01242046F8BD4FF0FF3438
:10601000F0E70378FF2B10B5044603D1407800F079
:106020000F0010BDFFF728FF60B9208840BA20F0AC
:106030003F000004000C4FF6C06398420CBF0520DF
:106040000E20EEE70220ECE737B5846891B9ADF891
:10605000001041F23423B4F9D610ADF8023068468E
:106060000194FBF75DFD002802DC154808F0C2FC36
:1060700003B030BD05291CD803291DD80229F7D14A
:10608000636820469B68984705462046FFF78CFFCB
:10609000002DEDD00B4995F910002B4640F201225E
:1060A000FFF7E3FD01460028E2D1284601F082F81F
:1060B000DEE706390129DBD82046FFF775FFD7E771
:1060C000960801000000FFFF30B58BB00C4611466A
:1060D0001A460023C0E90333109B436083680BB169
:1060E000FBF7B0FA0F9D8560CDE9070308A8CDE95D
:1060F0000412FBF781FD0E9B029307AB0193084B43
:106100000093DDE9041208232046FBF763FF002813
:10611000E6DD08A8FBF770FD09980BB030BD00BFA5
:106120009161000090F8D5200B2A07D801239340F5
:1061300013F4376F14BF0120002070470020704710
:1061400005F0C2B810B500242046FFF7F9FF08B9E2
:10615000204610BD4368002BF7D00134F5E710B599
:1061600004460020FFF7ECFF18B1B0F9D630A34287
:10617000F8D110BD20B1436813B10C30FBF7EEBA73
:10618000704720B1436813B10C30FBF7EBBA70478E
:10619000F0B50468A5B0054640F205230026204668
:1061A000CDE90066ADF80230FFF7E4FF304B102177
:1061B0001B88A4F8D6300DEB0100FBF70DFD6368DA
:1061C00020461B689847A860281DFBF745FDA96875
:1061D000B14246DB274BA5681B780BB9FBF732FAB7
:1061E0002046FFF7CEFF41F2332641F2342702A8C2
:1061F000FBF7EEFCBDF80A30B3F5017F2ED00FD8C7
:1062000040F20222934218D040F2032293421AD065
:1062100063685B69002BEAD002A920469847E6E74D
:10622000B34206D0BB42F3D12B6828461B6998477E
:10623000DDE72046FFF7B8FED9E7039900222046A4
:10624000FFF774FED3E763681B69039920469847FC
:106250006946019002A8FBF795FCC8E76368DB6814
:10626000F3E7054808F012FB304625B0F0BD00BF4B
:1062700090110020DC1F0020BB0801002DE9F8432D
:106280000E460546FFF776FF33783489112B0CD87C
:10629000062B0FD9073B0A2B0CD8DFE803F0238528
:1062A0002A0B50650B0B0B0B9A00402B0BD0412B8C
:1062B00000F09B80A8687268036831785C69338954
:1062C000A047044608E0012C01D0FBF7BBF92846A3
:1062D000FFF728FF736818702846FFF752FF204623
:1062E000BDE8F883012CF0D1736895F8D4201A70BA
:1062F000F2E70F2CE9D92C7D73688CB105F11602F9
:10630000194605F1260052F8044B41F8044B82422D
:10631000F9D13289102A03F110034FF01004DBD9B0
:106320006A7D002AD8D005F1260205F1360152F81F
:10633000040B43F8040B8A42F9D11034CCE7002C4B
:10634000C3D0726805F1140305F1160000243189E9
:10635000A142C1DD8342BFD013F8011B0029F6D052
:1063600002F8011B0134F2E70F2CAED9D6F80480F5
:1063700005F1360705F1660900243389A342ABDD38
:10638000B945A9D03846FFF76BFD07F1100348B9AE
:10639000424657F8041B42F8041B9F42F9D11034BF
:1063A00008F110081F46E8E7072C8ED9D5F8A4207D
:1063B0007368D2077FF57EAF95F8B02005F1A8018C
:1063C0002846FFF72EFD10F1860F04463FF472AF0A
:1063D00082E77388022B7FF46DAF022C7FF475AFD8
:1063E0007368B5F8A0201A8076E7012C7FF46DAFB2
:1063F000D5F8A4307268C3F3002313706CE7000073
:106400002DE9F0470D468AB091461F46044600B17B
:1064100009B9FBF717F90B78FF2BFAD00846FFF7FD
:106420001FFD0028F5D141491022284607F0DAFF68
:106430000028EED009F1FF337F2BEAD82046FFF782
:1064400099FE07F01F03072B08BF07F0F80729463E
:1064500004F1160008BF47F0010703F0ABFFB8B91D
:10646000267D2946003E04F1260018BF012603F0D0
:10647000A1FF7642804688B996B1637D002B4BD050
:106480002046FFF77EFE6FF00B000AB0BDE8F087F4
:1064900000262046FFF775FE3046F6E70126F8E7AE
:1064A0000646D4F8A430DB040BD428222946204821
:1064B000B4F9D6A003F0D4FF514602461D4808F0B7
:1064C000E5F9A119731C04EB03130F752A46063373
:1064D00005F1100052F8047B43F8047B8242F9D1A5
:1064E0000B7D03F01F03102BD3D100230293B4F9CB
:1064F000D60003AA02A9FFF73BF9074670B9B8F125
:10650000000FC6D14FF0FF330093B4F9D6004A46CE
:106510002946FFF7B5F8BCE70126C2E7294603A8DC
:1065200003F05DFF484528BFB846E0E7EC0A0100EC
:10653000B41F0020D808010038B50D46044600B14C
:1065400009B9FBF77FF8FFF715FE29460022204620
:10655000FFF7CCFC05462046FFF713FE284638BD62
:1065600038B50D46044600B109B9FBF76BF8FFF7E3
:1065700001FE29462046FFF730FD05462046FFF77D
:1065800000FE284638BD2DE9F04F0F4691B09046E9
:10659000044600B109B9FBF755F8FFF7EBFD257D7F
:1065A000002D00F0B48015F0070540F0AF80B8F181
:1065B000000F00F0AF8004F11600FFF75DFC00282B
:1065C00016BF00264FF0FF368025637D002B00F0BC
:1065D000AB80590740F0A880B8F1000F40F09D80D3
:1065E00045F0400576424FF000093846ADF81C9062
:1065F000FFF70FFD4FF0FF33CDE90139A31D0393E2
:1066000004F1130382460DF11C08CB4604938BF072
:106610000702012101FA02F22A420BF1010327D0FD
:10662000039A059302EB03193946484603F0C2FE6C
:1066300000285DD14846FFF7ECFC824598F8002021
:10664000059B77D152440F3288F80020049A0299B2
:10665000D25C02F01F02082A1EBF98F80020013207
:1066600088F8002098F800208A4288BFCDE901B25E
:10667000022B08F101084FF0010BC8D14FF00009BF
:1066800004F11603C846049307AB13F80820029BD5
:106690009A4223D1049B03EB081B3946584603F06A
:1066A0009EFE039082465846FFF7E6FB002855D130
:1066B00008900546B4F9D60009AA08A9FFF758F8CA
:1066C000002842D125B1039BAB4228BF2B469A46F6
:1066D000D1453CBF5FFA8AF9CDF80480B8F1000FCC
:1066E00030D0019B5A1C06D004EB031909F116099E
:1066F000B9F1000F03D104EB061606F11609204686
:10670000FFF73FFD484611B0BDE8F08F00254FF080
:10671000FF365AE78025464657E704F12600FFF783
:10672000ABFB00287FF45CAF002E3FF45CAF4FF072
:106730000009E4E73CBFAAEB00000F32104488F8E0
:10674000000083E74FF001089EE7594609A803F0CF
:1067500046FEA84288BF9DF83450ABE74025B2E71B
:1067600038B5054600242046FFF7EAFC044660B130
:1067700000222946FFF7BAFB002806DA0122294643
:106780002046FFF7B3FB0028EDDB204638BD2DE99E
:10679000F34105466A4690F8D5000E4603F0A0FF87
:1067A00004462846FFF7E6FC002C0FDDA3B26A463C
:1067B00067212846FFF745FB10F1860F044608D0F5
:1067C000002806DA2846FFF7DCFC10E014F1860FFB
:1067D000F8D105F1360800274FF0FF343146404626
:1067E00003F0E8FD38B12846FFF7CBFC3C462046D5
:1067F00002B0BDE8F081621C05D14046FFF730FBD6
:10680000002818BF3C460137032F08F11008E5D1D6
:10681000631C05D12846FFF7B4FC6FF00B04E6E7D4
:1068200005EB04133146363306F1100251F8040B20
:1068300043F8040B9142F9D1C4E72DE9FF478A469A
:10684000044600B109B9FAF7FDFE90F8D5006A4692
:1068500003F046FF051E02DA15F1860F32D12046FD
:10686000FFF788FC4FF0000804F13607C1464FF0EF
:10687000FF36002D13DD3846FFF7F2FA78B994F8A9
:10688000D50002AA394603F02BFF854207D12A46DC
:10689000694602A807F0A6FD08B909F101093846C2
:1068A000514603F087FD002818BF464608F101084D
:1068B000B8F1030F07F11007DBD1731C05D1204697
:1068C000FFF75FFC04B0BDE8F08715F1860F02D03A
:1068D000B9F1000FB7D0B9F1010F05D1ABB26A46DB
:1068E00068212046FFF7ADFA04EB061010220021C4
:1068F000363007F0A9FEE2E72DE9F04F0D468BB0E8
:10690000044600B109B9FAF79DFE4B7B8DF81530AE
:1069100040F2FF28CB89ADF816304FF000094FF058
:106920008076FF27CDE9028904968DF81470FFF771
:1069300021FC04F136030193012304F1160A04F14A
:10694000140B00932946504603F034FDC8B10021D2
:106950008BF800101022504607F076FE019B0AF1DA
:10696000100A9A450BF1010BECD1009B1BB102A957
:106970002046FFF762FF2046FFF703FC0BB0BDE89F
:10698000F08FCDE9068908968DF824709AF80D20CD
:106990008DF82520BAF80E20ADF8262002A906A809
:1069A00003F008FD0028009B18BF00230093D5E7E3
:1069B00070B50E460546FFF7DDFB337834891B2B97
:1069C00011D8062B11D9073B142B0ED8DFE803F0A2
:1069D0001F0D2C3C0D434A0D0D0D510D0D0D0D0DD0
:1069E0000D0D0D0D6E00412B4DD0A8687268036827
:1069F00031789C693389A047041E10DD3378052B5C
:106A00006BD8012B0BD92846FFF74EFA07E0012C73
:106A100001D0FAF717FE73681B7885F8D430284642
:106A2000FFF7AFFB204670BD102CF2D17288716861
:106A300002F0E00343F01003120A2846FFF7E0FCDF
:106A4000041E46DB1024EAE7102CE2D171682846C8
:106A5000FFF752FFE3E7102CDBD171682846FFF700
:106A600096FEEDE7102CD4D171682846FFF7E5FEBD
:106A7000D5E77388022BB8D1022CCAD173681B8862
:106A8000A5F8A030CBE7012CC3D17368D5F8A420BA
:106A90001B78012B05D142F48072C5F8A420012493
:106AA000BDE722F48072C5F8A420B8E77268D5F873
:106AB000A4301178A86801290CBF43F4803323F473
:106AC0008033C5F8A43003681B219E692346B04774
:106AD000E5E714F1860FA2D187E7532B9FD1284613
